:1000000000400020E5010000390200003B02000032
:1000100000000000000000000000000000000000E0
:100020000000000000000000000000003D02000091
:1000300000000000000000003F020000410200003C
:10004000430200004302000043020000430200009C
:1000500043020000000000004302000043020000D1
:10006000190A0000CD0A0000810B000043020000C5
:10007000430200004302000043020000430200006C
:10008000430200004302000043020000430200005C
:10009000430200004302000043020000430200004C
:1000A00043020000430200000000000000000000C6
:1000B0000000000000000000000000000000000040
:1000C00010B5064C2378002B07D1054B002B02D02E
:1000D000044800E000BF0123237010BD2801002068
:1000E0000000000060130000084B10B5002B03D087
:1000F0000749084800E000BF07480368002B00D10B
:1001000010BD064B002BFBD09847F9E7000000001C
:100110002C010020601300002401002000000000DA
:10012000164B002B00D1144B9D46402292029A1A86
:10013000924600218B460F461348144A121A00F0CB
:1001400053FF0F4B002B00D098470E4B002B00D0D5
:1001500098470020002104000D000D48002802D01F
:100160000C4800E000BF00F005FF2000290000F06F
:1001700085FB00F0E9FEC0460000080000400020BA
:1001800000000000000000002801002038020020CC
:100190000000000000000000D0B582B006000F0093
:1001A00010001900FA229200002300F04FFD019088
:1001B000019C0B4A00233000390000F06BFD201831
:1001C0000190019B5A1E0192002B07D01623009329
:1001D000009B5A1E0092002BFAD1F2E702B0D0BD6C
:1001E00040420F0003210E4802680A4302600D4896
:1001F00002680A4302600C490C4A0D4B9B1A03DD4E
:10020000043BC858D050FBDC09490A4A0020521A66
:1002100002DD043A8850FCDC00F0E0FBFFF780FFD1
:1002200024050040540500406C130000000000202D
:100230002801002038020020FEE7FEE7FEE7FEE787
:10024000FEE7FEE770B5050000242B689C4208DA43
:10025000E3006A68944663445A681868904701341A
:10026000F3E770BD30B50023052B4FD85A00D218E4
:100270002949895C29480478A14209D9990028486C
:1002800009584D680868012181402648295009E035
:100290009900234809584D68086801218140A12030
:1002A000C0002950511C1C48415C8C4209D2990065
:1002B0001B480958CD688868012181401948295098
:1002C00009E0990016480958CD68886801218140E5
:1002D000A120C000295002320F498A5C944209D201
:1002E0009A000F4952585069116901228A400D49FC
:1002F000425009E09A000A49525850691169012296
:100300008A40A121C90042500133ADE7034A137866
:100310000133137030BDC046A80100202402002024
:10032000040000200C05000082B0F0B54F464646A0
:10033000C0B489B00091019211AF119306AB6A4627
:1003400022CA22C3069A019B0360426001218846AB
:100350009940A326F6009151C133FF339B00995871
:100360000C25A943995099588C461C4989466446E6
:100370000C409C5004AB3A0012CA12C3049A129B60
:100380008360C26047469F409751C133FF339B0053
:100390009F58AF439F509F5849460F409F5002AA15
:1003A00013AB1C0082CC82C2029A149B036142618F
:1003B00044469C409451C133FF339B009C58AC434E
:1003C0009C509C5849462140995009B00CBC90461D
:1003D0009946F0BC08BC02B01847C046FFF8FFFFC2
:1003E00070B584B001286BD1364B994268D1364B39
:1003F000364A1A60002159609A600131D9601A6149
:10040000013159619A610131D9611A620131596230
:100410009A620131D9621A632D492E4A2E4B01ACE2
:10042000200060CB60C04B6800930B681168526875
:100430002A48FFF779FF2A492A4A2B4B200060CB34
:1004400060C04B6800930B68116852682748FFF73B
:100450006BFF2749274A284B200060CB60C04B68C0
:1004600000930B68116852682448FFF75DFF244928
:10047000244A254B200060CB60C04B6800930B687A
:10048000116852682148FFF74FFF2149214A224B4A
:10049000200060CB60C04B6800930B681168526805
:1004A0001E48FFF741FF1E491E4A1F4B21CB21C4A6
:1004B0004B6800930B68116852681C48FFF734FFC3
:1004C00004B070BDFFFF0000EC0100200080004080
:1004D00050130000201300004013000048010020CA
:1004E000F8120000D0120000E812000060010020A5
:1004F00038130000101300002813000078010020BA
:1005000000130000D8120000F0120000900100203B
:10051000481300001813000030130000D40100201D
:1005200008130000C8120000E0120000BC01002007
:1005300030B50C480B4B1833984212D008C8012232
:10054000140019688C40A121C9005D686C5014002A
:100550009D68AC40DD686C505C691B699A406250D4
:10056000E8E730BD0400002070B5964B1B6B0421FA
:10057000A222D20099500139083A99500021924A9A
:100580009950924A934207D0914A934206D0914A99
:10059000934205D000F052FB082302E0092300E05B
:1005A0000A2301210A009A408B4B1A60854A13687E
:1005B0005268100010300C008440C12080001C5094
:1005C0008024A40018599140014319515132FF323F
:1005D00092003221D1507D4A93424DD1794B5C68D3
:1005E000E4007E4BE41863687D4A934204D17D4B5E
:1005F000636000232360E0E07B4A93421AD12468C1
:100600002368591CC900606800F092FD002800D1E1
:10061000D3E060602368DB00C01800230360236818
:10062000DB006268944663446E4A5A602368013373
:100630002360C2E02668082000F0C2FC051E00D13D
:10064000BBE02060102000F0BBFC00280FD06860E9
:1006500006606B6862685A606B6800229A606B681B
:10066000604ADA6002232B605F4B6360A5E020687C
:1006700000F0B0FC2660A0E0554A93424CD1514BAB
:100680005C68E400594BE4186368554A934204D10E
:10069000544B6360002323608FE0534A93421AD186
:1006A00024682368591CC900606800F041FD0028D7
:1006B00000D182E060602368DB00C0180023036083
:1006C0002368DB00626894466344464A5A602368A4
:1006D0000133236071E02668082000F071FC051EDC
:1006E0006BD02060102000F06BFC00280FD06860F9
:1006F00006606B6862685A606B6800229A606B687B
:10070000384ADA6002232B60374B636055E020687B
:1007100000F060FC266050E02E4A93424BD1294BFA
:100720005C68E400324BE41863682D4A934204D1BC
:100730002C4B6360002323603FE02B4A934219D186
:1007400024682368591CC900606800F0F1FC002887
:1007500033D060602368DB00C01800230360236887
:10076000DB006268944663441E4A5A602368013382
:10077000236022E02668082000F022FC051E1CD021
:100780002060102000F01CFC00280FD0686006607C
:100790006B6862685A606B6800229A606B68114AE5
:1007A000DA6002232B60104B636006E0206800F0E3
:1007B00011FC266001E000F041FA024B1B6B0122A4
:1007C0001A6070BDEC0100200405000000800040AC
:1007D0000090004000A0004000E100E01C0000206C
:1007E0001D09000065020000450200004C000020C9
:1007F0007C00002030B500220024052A20D8114BAF
:100800001B78002B09D010490B6805330B60F92BBE
:100810000DDD00210B4B197009E00B490B68053BFE
:100820000B60002B03DC0121064B197001245300DF
:100830009B18C31804490D680449CD540132DCE704
:10084000200030BD0000002020020020A801002070
:1008500010B5094B1878FFF7CDFF002803D0064AE2
:10086000137801331370044B1B78032B02D1002241
:10087000014B1A7010BDC0464401002070B5A02382
:10088000DB0580210905194A9950194A99580C200D
:10089000814399509858174901409950FFF748FEF5
:1008A000FFF762FE1423002B1DD0FA2292000023D2
:1008B0001420002100F0CAF904000D00FA22920071
:1008C000002300F0E7F914220023121A8B411000D4
:1008D0001900094A002300F0DDF902000B00200096
:1008E0002900FFF759FCFFF7B3FFDBE71C05000009
:1008F0006C070000FFF8FFFF40420F0010B50249EF
:100900000120FFF76DFD10BDFFFF000010B502498B
:100910000020FFF765FD10BDFFFF00007047C046D7
:10092000174B1B68FF221340012B1DD1154B1B6871
:100930001B071BD1144B1B680F3A134004D1134AF9
:100940001268F021114213D0102B04D10F4A126803
:10095000F02111420ED0302B0ED10C4B1B68F0222F
:100960001A420BD000200AE0002008E0002006E038
:10097000012004E0012002E0002000E00120704797
:10098000E00F00F0E40F00F0E80F00F0EC0F00F0D3
:100990000E4B1B68FF221340012B0FD10C4B1B6821
:1009A0001B070DD10B4B1B680F3A1340402B09D18D
:1009B000094B1B681A4207D0002006E0002004E023
:1009C000002002E0002000E001207047E00F00F06E
:1009D000E40F00F0E80F00F0EC0F00F010B5FFF7A7
:1009E0009FFF002806D0094A094B1A608022120294
:1009F000084B1A60FFF7CCFF002805D00121C12366
:100A0000DB008022D205D15010BDC046DFFF07C0F9
:100A100004050040186C004010B5A0235B00294A73
:100A2000D358012B07D100214033FF33D150264B3F
:100A30005A6818689047A2235B00224AD358002BBB
:100A400007D00021A2235B00D1501F4BDA689868C1
:100A50009047A4235B001B4AD358002B07D00021EA
:100A6000A4235B00D150184B5A6918699047A623FC
:100A70005B00144AD358002B07D00021A6235B004B
:100A8000D150114BDA6998699047A8235B000D4A51
:100A9000D358002B07D00021A8235B00D1500A4B6C
:100AA0005A6A186A9047AA235B00064AD358002B5B
:100AB00007D00021AA235B00D150034BDA6A986A61
:100AC000904710BD008000401C00002010B5A023FE
:100AD0005B00294AD358012B07D100214033FF3353
:100AE000D150264B5A6818689047A2235B00224ACF
:100AF000D358002B07D00021A2235B00D1501F4BFD
:100B0000DA6898689047A4235B001B4AD358002BEF
:100B100007D00021A4235B00D150184B5A691869F3
:100B20009047A6235B00144AD358002B07D000211E
:100B3000A6235B00D150114BDA6998699047A8232E
:100B40005B000D4AD358002B07D00021A8235B007F
:100B5000D1500A4B5A6A186A9047AA235B00064A8A
:100B6000D358002B07D00021AA235B00D150034BA0
:100B7000DA6A986A904710BD009000404C0000204F
:100B800010B5A0235B00294AD358012B07D10021BF
:100B90004033FF33D150264B5A6818689047A22340
:100BA0005B00224AD358002B07D00021A2235B0010
:100BB000D1501F4BDA6898689047A4235B001B4A0A
:100BC000D358002B07D00021A4235B00D150184B31
:100BD0005A6918699047A6235B00144AD358002B22
:100BE00007D00021A6235B00D150114BDA69986928
:100BF0009047A8235B000D4AD358002B07D0002153
:100C0000A8235B00D1500A4B5A6A186A9047AA235E
:100C10005B00064AD358002B07D00021AA235B00B3
:100C2000D150034BDA6A986A904710BD00A000408B
:100C30007C00002010B5804700F07EF9024B10B513
:100C40001868FFF7F7FFC046AC000020002B15D155
:100C5000002A13D1002906DB01DC002806D0002081
:100C6000C043410802E080210906002007B4024881
:100C700001A14018029003BDAD00000003B4684616
:100C800001B5029800F032F8019B9E4602B00CBC00
:100C90007047C046F0B54F464646C0B41604360C01
:100CA0009946330005042C0C070C150C63437E4356
:100CB0006F4365431C0CAD1964199C46A64203D9C9
:100CC00080235B02984647446346250CEF191D04B8
:100CD0004B464A4343432D0C240464199918C919FF
:100CE00020000CBC90469946F0BDC046F0B583B0DC
:100CF00016001F000090019100F022F804000D0082
:100D000002000B0030003900FFF7C4FF009A019B7E
:100D1000121A8B41089920000A604B60290003B029
:100D2000F0BDC0467047C04610B5002903D100F0A1
:100D3000E5F8203002E0081C00F0E0F810BDC046E5
:100D4000F0B544465F4656464D46F0B41C0083B0AD
:100D5000002900DA92E00F00002106008A46100008
:100D60001900002C00DA80E034003D0081468846FE
:100D7000B94269D866D041464846FFF7D5FF834659
:100D800039003000FFF7D0FF5B461B1A9C46203B22
:100D90009B4600D586E04946584681400B004946AF
:100DA000604681400A00BB4200D971E06DD034003A
:100DB0003D005946A41A9D41002900DA89E000212E
:100DC000002001260090019159468E40019661460F
:100DD00001268E4061460096002960D0D90756084A
:100DE0000E435F086146012200230CE0AF4201D1AF
:100DF000A6420AD8A41BBD4124196D410139A4188B
:100E00005D41002906D0AF42F0D9013924196D4166
:100E10000029F8D15B460098019900196941002B1F
:100E20004CDB2E00DE4063462C00DC405B46002B92
:100E30005ADB34009C4023006446A6403200801AEE
:100E4000994103E0B04296D9002000215346002B7F
:100E500004D003000C0000215842A14103B03CBC67
:100E600090469946A246AB46F0BD5346DB430C0084
:100E70009A46130000215842A14175E700274642D7
:100E80008F41012149428A4669E7B14200D88EE785
:100E90000021002000900191614600299ED1009818
:100EA0000199D3E7624640462023494690409B1A69
:100EB000D9400300009100990B4370E7624620235C
:100EC0009B1A2A009A40260013006246D6401E4311
:100ED000A9E7614620260127761A00200021F74065
:100EE00000900191019772E76246202335009440FB
:100EF0009B1ADD4023002B439EE7C0461C210123A3
:100F00001B04984201D3000C10391B0A984201D3EC
:100F1000000A08391B09984201D30009043902A2CA
:100F2000105C40187047C046040302020101010131
:100F3000000000000000000010B5062000F03EF99F
:100F4000012000F0B3F90000084B10B50400002B9D
:100F500002D0002100E000BF054B1868836A002B17
:100F600000D09847200000F0A1F9C0460000000022
:100F70005C1300000E4B70B500251E000D4CE41AEA
:100F8000A410A54204D0AB00F35898470135F8E708
:100F900000F08EF9084B00251E00084CE41AA4103E
:100FA000A54204D0AB00F35898470135F8E770BD6F
:100FB0001401002014010020140100201C01002055
:100FC00010B5034B0100186800F05CF810BDC04676
:100FD0001001002010B5034B0100186800F00CF858
:100FE00010BDC0461001002003008218934202D0B9
:100FF00019700133FAE7704730B500293ED0043943
:101000000B68002B00DAC9181D4A13681400002B66
:1010100002D14B60116031E08B420DD90A6888180B
:10102000834203D118685B6882180A604B602160B4
:1010300024E08A4203D813005A68002AF9D11D68B7
:101040005C198C420BD109686918581819608242E2
:1010500014D110685268411819605A600EE08C4231
:1010600002D90C23036009E008680C18A24203D1DE
:1010700014685268201808604A60596030BDC04644
:101080002C020020032370B5CD1C9D4308350600BB
:101090000C2D01D20C2505E0002D03DA0C230020D5
:1010A000336040E0A942F9D81F4B1C681A002100A8
:1010B000002913D00B685B1B0DD40B2B02D90B60DE
:1010C000CC181EE08C4202D1636813601AE04B68B2
:1010D00063600C0016E00C004968E9E7134C2368D4
:1010E000002B03D1300000F02DF8206029003000E3
:1010F00000F028F8431CD1D00323C41C9C43A04219
:101100000AD12560200007220B30231D9043C31A0B
:1011100009D05A42E25006E0211A300000F012F8DD
:10112000431CEED1BAE770BD2C020020280200203B
:1011300010B5034B0A000100186800F05FF810BDFD
:1011400010010020002370B5064C05000800236044
:1011500000F09EF8431C03D12368002B00D02B60C5
:1011600070BDC0463402002070B504000D1E1F2D56
:1011700004D916230360012040421EE0426C002A7D
:1011800004D08B00D2181368002B08D1200000F087
:1011900031F82A000100200000F01AF80DE00020CC
:1011A000012B0AD0591C03D117332360013004E00E
:1011B0000024280014609847200070BD10B5034B30
:1011C00001001868FFF7D0FF10BDC04610010020D5
:1011D000002370B5064C050008001100236000F0E4
:1011E0004FF8431C03D12368002B00D02B6070BD47
:1011F0003402002010B500F03BF810BDF8B5060031
:101200000C001500002904D11100FFF73BFF04007A
:1012100018E0002A03D1FFF7EFFE2C0012E000F0E7
:101220001CF885420ED929003000FFF72BFF071E5E
:1012300007D021002A0000F007F821003000FFF756
:10124000DBFE3C002000F8BD002310B59A4203D01D
:10125000CC5CC4540133F9E710BD0B1F1A68101F92
:10126000002A04DA891804390B68D018043870474A
:1012700058220120014B40421A607047340200207E
:1012800058220120014B40421A607047340200206E
:10129000044A1368002B03D0181810601800704718
:1012A000014BF9E73002002038020020FEE7C0467B
:1012B000F8B5C046F8BC08BC9E467047F8B5C046B5
:1012C000F8BC08BC9E467047000000500B000000B0
:1012D000000000500800000000000050170000004F
:1012E000000000500D000000000000500A00000047
:1012F0000000005015000000000000500900000030
:101300000000005016000000000000500C0000001B
:10131000000000501E00000000000050020000000D
:101320000000005013000000000000500100000009
:101330000000005004000000000000500000000009
:1013400000000050110000000000005003000000E9
:10135000000000501200000043000000B000002018
:041360000000000089
:08136400BCEDFF7F0100000059
:10136C000100000048010020BC01002060010020A9
:10137C00D401002078010020900100200000000022
:10138C001D090000000000001D0900000000000005
:10139C001D090000000000001D09000000000000F5
:1013AC001D090000000000001D09000000000000E5
:1013BC001D090000000000001D09000000000000D5
:1013CC001D090000000000001D09000000000000C5
:1013DC001D090000000000001D09000000000000B5
:1013EC001D090000000000001D09000000000000A5
:1013FC001D090000000000001D0900000000000095
:10140C001D090000000000001D090000390F00003C
:10141C0000000000000000000000000000000000C0
:10142C0000000000000000000000000000000000B0
:10143C005813000000000000000000000000000035
:10144C000000000000000000000000000000000090
:10145C000000000000000000000000000000000080
:10146C000000000000000000000000000000000070
:10147C00B0000020E9000000FD080000C1000000E1
:08148C000D0900000000000042
:04000003000001E513
:00000001FF
