:1000000000400020E5010000390200003B02000032
:1000100000000000000000000000000000000000E0
:100020000000000000000000000000003D02000091
:1000300000000000000000003F020000410200003C
:10004000430200004302000043020000430200009C
:1000500043020000000000004302000043020000D1
:10006000DD090000910A0000450B0000430200007A
:10007000430200004302000043020000430200006C
:10008000430200004302000043020000430200005C
:10009000430200004302000043020000430200004C
:1000A00043020000430200000000000000000000C6
:1000B0000000000000000000000000000000000040
:1000C00010B5064C2378002B07D1054B002B02D02E
:1000D000044800E000BF0123237010BD240100206C
:1000E0000000000024130000084B10B5002B03D0C3
:1000F0000749084800E000BF07480368002B00D10B
:1001000010BD064B002BFBD09847F9E7000000001C
:10011000280100202413000020010020000000001E
:10012000164B002B00D1144B9D46402292029A1A86
:10013000924600218B460F461348144A121A00F0CB
:1001400035FF0F4B002B00D098470E4B002B00D0F3
:1001500098470020002104000D000D48002802D01F
:100160000C4800E000BF00F0E7FE2000290000F08E
:1001700067FB00F0CBFEC0460000080000400020F6
:100180000000000000000000240100202C020020DC
:100190000000000000000000D0B582B006000F0093
:1001A00010001900FA229200002300F031FD0190A6
:1001B000019C0B4A00233000390000F04DFD20184F
:1001C0000190019B5A1E0192002B07D01623009329
:1001D000009B5A1E0092002BFAD1F2E702B0D0BD6C
:1001E00040420F0003210E4802680A4302600D4896
:1001F00002680A4302600C490C4A0D4B9B1A03DD4E
:10020000043BC858D050FBDC09490A4A0020521A66
:1002100002DD043A8850FCDC00F0C2FBFFF780FFEF
:100220002405004054050040301300000000002069
:10023000240100202C020020FEE7FEE7FEE7FEE797
:10024000FEE7FEE770B5050000242B689C4208DA43
:10025000E3006A68944663445A681868904701341A
:10026000F3E770BD30B50023052B4FD85A00D218E4
:100270002949895C29480478A14209D9990028486C
:1002800009584D680868012181402648295009E035
:100290009900234809584D68086801218140A12030
:1002A000C0002950511C1C48415C8C4209D2990065
:1002B0001B480958CD688868012181401948295098
:1002C00009E0990016480958CD68886801218140E5
:1002D000A120C000295002320F498A5C944209D201
:1002E0009A000F4952585069116901228A400D49FC
:1002F000425009E09A000A49525850691169012296
:100300008A40A121C90042500133ADE7034A137866
:100310000133137030BDC046A00100201902002037
:10032000000000200C05000082B0F0B54F464646A4
:10033000C0B489B00091019211AF119306AB6A4627
:1003400022CA22C3069A019B0360426001218846AB
:100350009940A326F6009151C133FF339B00995871
:100360000C25A943995099588C461C4989466446E6
:100370000C409C5004AB3A0012CA12C3049A129B60
:100380008360C26047469F409751C133FF339B0053
:100390009F58AF439F509F5849460F409F5002AA15
:1003A00013AB1C0082CC82C2029A149B036142618F
:1003B00044469C409451C133FF339B009C58AC434E
:1003C0009C509C5849462140995009B00CBC90461D
:1003D0009946F0BC08BC02B01847C046FFF8FFFFC2
:1003E00070B584B001286BD1364B994268D1364B39
:1003F000364A1A60002159609A600131D9601A6149
:10040000013159619A610131D9611A620131596230
:100410009A620131D9621A632D492E4A2E4B01ACE2
:10042000200060CB60C04B6800930B681168526875
:100430002A48FFF779FF2A492A4A2B4B200060CB34
:1004400060C04B6800930B68116852682748FFF73B
:100450006BFF2749274A284B200060CB60C04B68C0
:1004600000930B68116852682448FFF75DFF244928
:10047000244A254B200060CB60C04B6800930B687A
:10048000116852682148FFF74FFF2149214A224B4A
:10049000200060CB60C04B6800930B681168526805
:1004A0001E48FFF741FF1E491E4A1F4B21CB21C4A6
:1004B0004B6800930B68116852681C48FFF734FFC3
:1004C00004B070BDFFFF0000E40100200080004088
:1004D00014130000E4120000041300004001002087
:1004E000BC12000094120000AC1200005801002061
:1004F000FC120000D4120000EC1200007001002079
:10050000C41200009C120000B412000088010020F8
:100510000C130000DC120000F4120000CC010020DB
:10052000CC1200008C120000A4120000B4010020C4
:1005300030B50C480B4B1833984212D008C8012232
:10054000140019688C40A121C9005D686C5014002A
:100550009D68AC40DD686C505C691B699A406250D4
:10056000E8E730BD0000002070B5964B1B6B0421FE
:10057000A222D20099500139083A99500021924A9A
:100580009950924A934207D0914A934206D0914A99
:10059000934205D000F034FB082302E0092300E079
:1005A0000A2301210A009A408B4B1A60854A13687E
:1005B0005268100010300C008440C12080001C5094
:1005C0008024A40018599140014319515132FF323F
:1005D00092003221D1507D4A93424DD1794B5C68D3
:1005E000E4007E4BE41863687D4A934204D17D4B5E
:1005F000636000232360E0E07B4A93421AD12468C1
:100600002368591CC900606800F074FD002800D1FF
:10061000D3E060602368DB00C01800230360236818
:10062000DB006268944663446E4A5A602368013373
:100630002360C2E02668082000F0A4FC051E00D15B
:10064000BBE02060102000F09DFC00280FD0686007
:1006500006606B6862685A606B6800229A606B681B
:10066000604ADA6002232B605F4B6360A5E020687C
:1006700000F092FC2660A0E0554A93424CD1514BC9
:100680005C68E400594BE4186368554A934204D10E
:10069000544B6360002323608FE0534A93421AD186
:1006A00024682368591CC900606800F023FD0028F5
:1006B00000D182E060602368DB00C0180023036083
:1006C0002368DB00626894466344464A5A602368A4
:1006D0000133236071E02668082000F053FC051EFA
:1006E0006BD02060102000F04DFC00280FD0686017
:1006F00006606B6862685A606B6800229A606B687B
:10070000384ADA6002232B60374B636055E020687B
:1007100000F042FC266050E02E4A93424BD1294B18
:100720005C68E400324BE41863682D4A934204D1BC
:100730002C4B6360002323603FE02B4A934219D186
:1007400024682368591CC900606800F0D3FC0028A5
:1007500033D060602368DB00C01800230360236887
:10076000DB006268944663441E4A5A602368013382
:10077000236022E02668082000F004FC051E1CD03F
:100780002060102000F0FEFB00280FD0686006609B
:100790006B6862685A606B6800229A606B68114AE5
:1007A000DA6002232B60104B636006E0206800F0E3
:1007B000F3FB266001E000F023FA024B1B6B0122E1
:1007C0001A6070BDE40100200405000000800040B4
:1007D0000090004000A0004000E100E01800002070
:1007E000E10800006502000045020000480000200A
:1007F0007800002070B5104B1D782C000F4B5E5D0B
:100800000022052A08D853009B18E3180B48C15C46
:100810000A31C1540132F4E7084B5B5D9E4202D9B4
:100820000135054B1D70044B1B78032B02D10022B0
:10083000014B1A7070BDC04618020020A0010020B4
:1008400070B5A023DB0580210905194A9950194A82
:1008500099580C2081439950985817490140995054
:10086000FFF766FEFFF780FE1423002B1DD0FA224F
:10087000920000231420002100F0CAF904000D00AA
:10088000FA229200002300F0E7F914220023121A42
:100890008B4110001900094A002300F0DDF9020025
:1008A0000B0020002900FFF777FCFFF7A3FFDBE731
:1008B0001C0500006C070000FFF8FFFF40420F001E
:1008C00010B502490120FFF78BFD10BDFFFF0000AE
:1008D00010B502490020FFF783FD10BDFFFF0000A7
:1008E0007047C046174B1B68FF221340012B1DD1D8
:1008F000154B1B681B071BD1144B1B680F3A134089
:1009000004D1134A1268F021114213D0102B04D1E4
:100910000F4A1268F02111420ED0302B0ED10C4B31
:100920001B68F0221A420BD000200AE0002008E0E9
:10093000002006E0012004E0012002E0002000E0A9
:1009400001207047E00F00F0E40F00F0E80F00F026
:10095000EC0F00F00E4B1B68FF221340012B0FD150
:100960000C4B1B681B070DD10B4B1B680F3A134038
:10097000402B09D1094B1B681A4207D0002006E022
:10098000002004E0002002E0002000E00120704789
:10099000E00F00F0E40F00F0E80F00F0EC0F00F0C3
:1009A00010B5FFF79FFF002806D0094A094B1A60CF
:1009B00080221202084B1A60FFF7CCFF002805D0F6
:1009C0000121C123DB008022D205D15010BDC046D9
:1009D000DFFF07C004050040186C004010B5A023DD
:1009E0005B00294AD358012B07D100214033FF3344
:1009F000D150264B5A6818689047A2235B00224AC0
:100A0000D358002B07D00021A2235B00D1501F4BED
:100A1000DA6898689047A4235B001B4AD358002BE0
:100A200007D00021A4235B00D150184B5A691869E4
:100A30009047A6235B00144AD358002B07D000210F
:100A4000A6235B00D150114BDA6998699047A8231F
:100A50005B000D4AD358002B07D00021A8235B0070
:100A6000D1500A4B5A6A186A9047AA235B00064A7B
:100A7000D358002B07D00021AA235B00D150034B91
:100A8000DA6A986A904710BD008000401800002084
:100A900010B5A0235B00294AD358012B07D10021B0
:100AA0004033FF33D150264B5A6818689047A22331
:100AB0005B00224AD358002B07D00021A2235B0001
:100AC000D1501F4BDA6898689047A4235B001B4AFB
:100AD000D358002B07D00021A4235B00D150184B22
:100AE0005A6918699047A6235B00144AD358002B13
:100AF00007D00021A6235B00D150114BDA69986919
:100B00009047A8235B000D4AD358002B07D0002143
:100B1000A8235B00D1500A4B5A6A186A9047AA234F
:100B20005B00064AD358002B07D00021AA235B00A4
:100B3000D150034BDA6A986A904710BD009000408C
:100B40004800002010B5A0235B00294AD358012B90
:100B500007D100214033FF33D150264B5A68186823
:100B60009047A2235B00224AD358002B07D00021D4
:100B7000A2235B00D1501F4BDA6898689047A423EA
:100B80005B001B4AD358002B07D00021A4235B0035
:100B9000D150184B5A6918699047A6235B00144A34
:100BA000D358002B07D00021A6235B00D150114B56
:100BB000DA6998699047A8235B000D4AD358002B47
:100BC00007D00021A8235B00D1500A4B5A6A186A4B
:100BD0009047AA235B00064AD358002B07D0002178
:100BE000AA235B00D150034BDA6A986A904710BD84
:100BF00000A000407800002010B5804700F07EF98A
:100C0000024B10B51868FFF7F7FFC046A800002098
:100C1000002B15D1002A13D1002906DB01DC0028A6
:100C200006D00020C043410802E0802109060020D0
:100C300007B4024801A14018029003BDAD000000B6
:100C400003B4684601B5029800F032F8019B9E4655
:100C500002B00CBC7047C046F0B54F464646C0B423
:100C60001604360C9946330005042C0C070C150CA1
:100C700063437E436F4365431C0CAD1964199C4666
:100C8000A64203D980235B02984647446346250C5D
:100C9000EF191D044B464A4343432D0C24046419A9
:100CA0009918C91920000CBC90469946F0BDC04661
:100CB000F0B583B016001F000090019100F022F8FB
:100CC00004000D0002000B0030003900FFF7C4FFE4
:100CD000009A019B121A8B41089920000A604B6010
:100CE000290003B0F0BDC0467047C04610B50029CA
:100CF00003D100F0E5F8203002E0081C00F0E0F835
:100D000010BDC046F0B544465F4656464D46F0B469
:100D10001C0083B0002900DA92E00F0000210600D9
:100D20008A4610001900002C00DA80E034003D00F3
:100D300081468846B94269D866D041464846FFF7A1
:100D4000D5FF834639003000FFF7D0FF5B461B1A02
:100D50009C46203B9B4600D586E04946584681404C
:100D60000B004946604681400A00BB4200D971E051
:100D70006DD034003D005946A41A9D41002900DA87
:100D800089E00021002001260090019159468E4003
:100D90000196614601268E4061460096002960D08A
:100DA000D90756080E435F086146012200230CE074
:100DB000AF4201D1A6420AD8A41BBD4124196D41FE
:100DC0000139A4185D41002906D0AF42F0D901399C
:100DD00024196D410029F8D15B460098019900194A
:100DE0006941002B4CDB2E00DE4063462C00DC40CA
:100DF0005B46002B5ADB34009C4023006446A6402F
:100E00003200801A994103E0B04296D900200021B7
:100E10005346002B04D003000C0000215842A1418E
:100E200003B03CBC90469946A246AB46F0BD534643
:100E3000DB430C009A46130000215842A14175E79C
:100E4000002746428F41012149428A4669E7B14263
:100E500000D88EE700210020009001916146002912
:100E60009ED100980199D3E7624640462023494627
:100E700090409B1AD9400300009100990B4370E702
:100E8000624620239B1A2A009A40260013006246DD
:100E9000D6401E43A9E7614620260127761A002086
:100EA0000021F74000900191019772E762462023EC
:100EB000350094409B1ADD4023002B439EE7C0463B
:100EC0001C2101231B04984201D3000C10391B0A7A
:100ED000984201D3000A08391B09984201D300093E
:100EE000043902A2105C40187047C0460403020295
:100EF00001010101000000000000000010B5062003
:100F000000F03EF9012000F0B3F90000084B10B5E5
:100F10000400002B02D0002100E000BF054B186840
:100F2000836A002B00D09847200000F0A1F9C0464A
:100F300000000000201300000E4B70B500251E00BD
:100F40000D4CE41AA410A54204D0AB00F358984706
:100F50000135F8E700F08EF9084B00251E00084C1B
:100F6000E41AA410A54204D0AB00F3589847013509
:100F7000F8E770BD100100201001002010010020D2
:100F80001801002010B5034B0100186800F05CF850
:100F900010BDC0460C01002010B5034B01001868BD
:100FA00000F00CF810BDC0460C01002003008218B0
:100FB000934202D019700133FAE7704730B5002927
:100FC0003ED004390B68002B00DAC9181D4A13689B
:100FD0001400002B02D14B60116031E08B420DD91F
:100FE0000A688818834203D118685B6882180A600F
:100FF0004B60216024E08A4203D813005A68002A1B
:10100000F9D11D685C198C420BD109686918581810
:101010001960824214D110685268411819605A60F0
:101020000EE08C4202D90C23036009E008680C181A
:10103000A24203D114685268201808604A605960BF
:1010400030BDC04620020020032370B5CD1C9D4357
:10105000083506000C2D01D20C2505E0002D03DA21
:101060000C230020336040E0A942F9D81F4B1C68D4
:101070001A002100002913D00B685B1B0DD40B2B29
:1010800002D90B60CC181EE08C4202D16368136059
:101090001AE04B6863600C0016E00C004968E9E751
:1010A000134C2368002B03D1300000F02DF8206092
:1010B0002900300000F028F8431CD1D00323C41CC1
:1010C0009C43A0420AD12560200007220B30231D3B
:1010D0009043C31A09D05A42E25006E0211A300068
:1010E00000F012F8431CEED1BAE770BD20020020D8
:1010F0001C02002010B5034B0A000100186800F024
:101100005FF810BD0C010020002370B5064C0500EF
:101110000800236000F09EF8431C03D12368002BD5
:1011200000D02B6070BDC0462802002070B50400BE
:101130000D1E1F2D04D916230360012040421EE01E
:10114000426C002A04D08B00D2181368002B08D1FF
:10115000200000F031F82A000100200000F01AF809
:101160000DE00020012B0AD0591C03D11733236056
:10117000013004E00024280014609847200070BD6E
:1011800010B5034B01001868FFF7D0FF10BDC04633
:101190000C010020002370B5064C0500080011006A
:1011A000236000F04FF8431C03D12368002B00D0CC
:1011B0002B6070BD2802002010B500F03BF810BD78
:1011C000F8B506000C001500002904D11100FFF746
:1011D0003BFF040018E0002A03D1FFF7EFFE2C00CC
:1011E00012E000F01CF885420ED929003000FFF70C
:1011F0002BFF071E07D021002A0000F007F821006E
:101200003000FFF7DBFE3C002000F8BD002310B5E6
:101210009A4203D0CC5CC4540133F9E710BD0B1FD4
:101220001A68101F002A04DA891804390B68D018CC
:101230000438704758220120014B40421A60704721
:101240002802002058220120014B40421A607047BA
:1012500028020020044A1368002B03D018181060DD
:1012600018007047014BF9E72402002030020020EB
:10127000FEE7C046F8B5C046F8BC08BC9E467047BD
:10128000F8B5C046F8BC08BC9E4670470000005048
:101290000B0000000000005008000000000000509B
:1012A00017000000000000500D000000000000507A
:1012B0000A0000000000005015000000000000506F
:1012C000090000000000005016000000000000505F
:1012D0000C000000000000501E0000000000005044
:1012E0000200000000000050130000000000005049
:1012F0000100000000000050040000000000005049
:10130000000000000000005011000000000000502C
:101310000300000000000050120000004300000025
:08132000AC00002000000000F9
:08132800F8EDFF7F0100000059
:1013300040010020B401002058010020CC01002011
:10134000700100208801002000000000E10800007A
:1013500000000000E108000000000000E1080000BB
:1013600000000000E108000000000000E1080000AB
:1013700000000000E108000000000000E10800009B
:1013800000000000E108000000000000E10800008B
:1013900000000000E108000000000000E10800007B
:1013A00000000000E108000000000000E10800006B
:1013B00000000000E108000000000000E10800005B
:1013C00000000000E108000000000000E10800004B
:1013D00000000000E1080000FD0E00000000000019
:1013E00000000000000000000000000000000000FD
:1013F0000000000000000000000000001C130000BE
:1014000000000000000000000000000000000000DC
:1014100000000000000000000000000000000000CC
:1014200000000000000000000000000000000000BC
:10143000000000000000000000000000AC000020E0
:10144000E9000000C1080000C1000000D108000050
:041450000000000098
:04000003000001E513
:00000001FF
