:100000000080002029220000252200002522000077
:1000100000000000000000000000000000000000E0
:100020000000000000000000000000002522000089
:100030000000000000000000252200002522000032
:10004000002243088B4274D303098B425FD3030A17
:100050008B4244D3030B8B4228D3030C8B420DD32A
:10006000FF22090212BA030C8B4202D312120902B8
:1000700065D0030B8B4219D300E0090AC30B8B42F6
:1000800001D3CB03C01A5241830B8B4201D38B03A4
:10009000C01A5241430B8B4201D34B03C01A524149
:1000A000030B8B4201D30B03C01A5241C30A8B428C
:1000B00001D3CB02C01A5241830A8B4201D38B0277
:1000C000C01A5241430A8B4201D34B02C01A52411B
:1000D000030A8B4201D30B02C01A5241CDD2C3098D
:1000E0008B4201D3CB01C01A524183098B4201D309
:1000F0008B01C01A524143098B4201D34B01C01AF4
:10010000524103098B4201D30B01C01A5241C3086B
:100110008B4201D3CB00C01A524183088B4201D3DA
:100120008B00C01A524143088B4201D34B00C01AC6
:100130005241411A00D20146524110467047FFE732
:1001400001B5002000F0F0F802BDC0460029F7D04C
:1001500076E7704703460B437FD4002243088B4267
:1001600074D303098B425FD3030A8B4244D3030B3E
:100170008B4228D3030C8B420DD3FF22090212BA03
:10018000030C8B4202D31212090265D0030B8B427F
:1001900019D300E0090AC30B8B4201D3CB03C01A69
:1001A0005241830B8B4201D38B03C01A5241430B44
:1001B0008B4201D34B03C01A5241030B8B4201D334
:1001C0000B03C01A5241C30A8B4201D3CB02C01A9F
:1001D0005241830A8B4201D38B02C01A5241430A17
:1001E0008B4201D34B02C01A5241030A8B4201D306
:1001F0000B02C01A5241CDD2C3098B4201D3CB01AD
:10020000C01A524183098B4201D38B01C01A52415B
:1002100043098B4201D34B01C01A524103098B425F
:1002200001D30B01C01A5241C3088B4201D3CB004A
:10023000C01A524183088B4201D38B00C01A52412D
:1002400043088B4201D34B00C01A5241411A00D2DD
:1002500001465241104670475DE0CA0F00D0494246
:10026000031000D34042534000229C4603098B42B6
:100270002DD3030A8B4212D3FC22890112BA030A3E
:100280008B420CD3890192118B4208D389019211C0
:100290008B4204D389013AD0921100E08909C30945
:1002A0008B4201D3CB01C01A524183098B4201D347
:1002B0008B01C01A524143098B4201D34B01C01A32
:1002C000524103098B4201D30B01C01A5241C308AA
:1002D0008B4201D3CB00C01A524183088B4201D319
:1002E0008B00C01A5241D9D243088B4201D34B0034
:1002F000C01A5241411A00D20146634652415B1076
:10030000104601D34042002B00D549427047634656
:100310005B1000D3404201B5002000F005F802BD9B
:100320000029F8D016E770477047C0468446100091
:1003300062468C461900634600E0C0461FB500F0D7
:10034000F9FF002801D40021C8421FBD10B500F0FC
:1003500049FF4042013010BD10B500F0EBFF00280E
:1003600001DB002010BD012010BDC04610B500F01B
:10037000E1FF002801DD002010BD012010BDC046B6
:1003800010B500F071FF002801DC002010BD012035
:1003900010BDC04610B500F067FF002801DA00204C
:1003A00010BD012010BDC046002B11D1002A0FD175
:1003B000002900D1002802D00021C943080007B459
:1003C000024802A14018029003BDC0465DFFFFFF36
:1003D00003B4684601B5029800F006F8019B9E46FA
:1003E00002B00CBC7047C046F0B557464E46454675
:1003F000DE46E0B504000D009246994683B08B427C
:1004000030D82DD04946504601F0BEFE29000600E6
:10041000200001F0B9FE331A9846203B9B4633D4A6
:100420005A465346934042461F00534693401E008F
:10043000AF423AD8AF4200D178E05B46A41BBD4141
:10044000002B00DA75E000220023009201930123C3
:100450005A4693400193012342469340009328E07B
:100460008242CFD900220023009201930C9B002BE3
:1004700001D01C605D600098019903B0F0BCBB46E0
:10048000B246A946A046F0BD424620239B1A5246DA
:10049000DA40414613004A468A40170042461F434D
:1004A000534693401E00AF42C4D90022002300925D
:1004B00001934346002BD9D0FB0772081A434646E6
:1004C0007B080EE0AB4201D1A2420CD8A41A9D4198
:1004D000012024196D410021013E24184D41002EB8
:1004E00006D0AB42EED9013E24196D41002EF8D161
:1004F000009801995B4600196941002B24DB2B0011
:100500005A464446D3402A00E2401C005B46150090
:10051000002B2ADB26009E40330026004746BE40C3
:100520003200801A9941009001919FE7A342BCD804
:1005300083E74246202300219B1A0022009101926A
:100540000122DA40019286E7424620239B1A2A00C4
:1005500046469A402300F340444613432A00E240B3
:100560001C005B461500002BD4DA42462F002023E6
:10057000260097409B1ADE403B003343CDE7C04640
:10058000F0B54F464646D6460D000400C0B51F00E4
:1005900011002803620F400A10437A00520DE30055
:1005A0003C039146640AFA0F4F0F6E0027439246B0
:1005B000B846760DED0FC900954200D199E04C4642
:1005C000341BA446002C00DC7CE04A46002A00D103
:1005D000B8E0C54A964200D11CE180223C001204DA
:1005E0001443A0466246382A00DD61E11F2A00DD7F
:1005F000CCE164462022121B444694400F00A146E1
:1006000064469140E7404C464A1E91413C43424675
:1006100021436446E240801A5C1AA3429B415F4238
:10062000C71B3B0200D4D0E07F027F0A002F00D11D
:10063000FFE0380001F08AFD010008392023220084
:100640005B1A8F40DA408C401743B14200DAFFE07A
:10065000891B4B1C1F2B00DDA8E020223900D21A79
:10066000200094409140D840621E9441DF40002613
:1006700001430C43630709D00F232340042B05D00B
:10068000231DA342A44164423F191C003B0200D435
:100690009EE0954B01369E4200D1B7E0934AE408B4
:1006A00017407B0771057F0223433F0B4A0D12055C
:1006B0003A43ED072A4318001100E0BCBA46B146A0
:1006C000A846F0BD002C4BD04C46A41BA446002EDF
:1006D00000D023E104001C4300D1AFE16246541E68
:1006E000012A00D115E2804DAC4500D1C8E1A446F5
:1006F0001BE14A46B21A9446002A00DCACE04A46A6
:10070000002A43D0784A964200D1AFE180223C00D3
:1007100012041443A0466246382A67DC1F2A00DC14
:100720005FE14746203AD7406246202A05D064461A
:100730004022121B4446944021434A1E91410C0022
:100740003C4357E03A000A4300D105E12200013A58
:10075000012C00D182E1644CA4455BD0944641E772
:10076000634C771C274200D0C4E004001C43002ED9
:1007700000D069E1002C00D1BFE144460C4300D019
:10078000D0E14207DB081343C00829E03A000A43DE
:1007900000D170E162466446013A012C00D1E0E0EC
:1007A000514CA44500D161E19446B4E73A001F39A9
:1007B000CA401100202B03D04022D31A9F403C4353
:1007C000631E9C41002700260C43630700D053E7BB
:1007D000B446E4087B072343F808434A94451DD0F8
:1007E0006246070352053F0B520D60E744460C4337
:1007F000621E9441E4189C429B415F423F183B02B9
:10080000E3D5394B01369E4200D0B5E032000027D7
:1008100000234CE74207DB081343C0081A000243D9
:1008200000D1E1E180273F0307433F032E4A3F0BFE
:100830003DE7200001F08AFC010018311F2900DC8F
:10084000FCE60838844027000024B14200DBFFE6C4
:10085000264A761A17400DE7002A2FD04A46921BE7
:100860009446002E00D1ADE01F4A914500D10FE122
:100870008022120410436246382A00DD0FE11F2A4D
:1008800000DD80E1644620221E00121B6746040042
:1008900093409440FE405A1E9341F84034431C4319
:1008A000804464188C42BF417F424E464744A6E7CD
:1008B00042460A4311004A1E9141ADE60C4C721C9F
:1008C000224200D0A1E002001A43002E00D0FAE03C
:1008D000002A00D145E13A000A4300D046E1420730
:1008E000DB081343C0087BE7FF070000FFFF7FFF23
:1008F000FE07000047465C1AC21BA342BF417F426D
:10090000B94617004A46BF1A3A0200D58DE02300C7
:100910003B4300D08AE60020002561E7B44CA145A6
:1009200000D1ADE08024240420436446382C3DDC13
:1009300062461F2C00DDB7E020251E002D1B0400A1
:10094000AB40AC40D640D04042465D1EAB41344344
:10095000121A904623432CE04207DB081343C008D9
:100960003BE75C189C429B4140445B42C718012610
:100970003B0200D429E702269E4A63081740012261
:1009800014401C43FB071C437F0873E64446203A8F
:10099000D4406246202A05D067464022D21B4746F3
:1009A000974039434A1E9141214335E60343581E7F
:1009B0008341CC1AA142BF4143467F4255464E4631
:1009C000DF1B2EE602001A4300D1BDE062466446FA
:1009D000013A012C00D1E5E0854CA44558D094465D
:1009E00049E764462022121B444694400F00A1466A
:1009F00064469140E7404C464A1E91413C43424682
:100A00000C436146CA408018F4E6794CA24200D1FA
:100A1000FDE6591899429B4140445F42C719FC07C3
:100A2000490816000C437F08CFE6CC1AA142BF410B
:100A300043467F42181A5546C71BF7E5C9087B078E
:100A400055460B43F808C8E6002C00D081E0434629
:100A50000B4315D1802000250003E3E65C1AA34276
:100A60009B41C71B5B420126FF1ADAE54207DB0800
:100A70001343C008D2E64207DB081343C008ACE6C4
:100A800043464246C9085B0755460B43D008C5E6B6
:100A9000434642465B07C9080B43D008BEE6034302
:100AA0001C00631E9C41FCE60200203CE240140056
:100AB0006246202A03D04025AD1AA8400343581EA1
:100AC0008341234375E7002AE2D03A000A43CDD0A0
:100AD0004207DB0813438022C0081203104206D0ED
:100AE000FC08144203D12000CB087A0713435A0FA5
:100AF000DB005207DB08134390E643460B4300D16B
:100B000009E743464246C9085B0755460B43D008F0
:100B100066E6CC1AA14289413F1A49425546012650
:100B20007F1A7EE542465C1A871AA34292415242DE
:100B3000BF1A3A023DD5CC1AA142894143464942E7
:100B40001F1A55467F1A95E57B07C9080B43F8081D
:100B500043E64446DB080C4330D142071343C00848
:100B60005CE67B07C9080B43F80839E65C189C4231
:100B70009B4140445B42C7183B0200D425E61D4B15
:100B800001261F4021E60400203AD4406246202A74
:100B900004D040226646921B904003435A1E934164
:100BA0001C437EE65C188C42894140444942471808
:100BB000DDE623003B4300D1ADE606E644072343D0
:100BC0008024C0082403204208D04246D60826428A
:100BD00004D155463000CB0851070B435A0FDB00B8
:100BE000DB085207134319E60023014A1F005EE5A4
:100BF000FF070000FFFF7FFFF0B557464E46454612
:100C0000DE46E0B5814605000C03480092461F0011
:100C100085B0240B400DCE0F002800D156E1D44BF7
:100C2000984200D172E16B0FE4001C4380231B0447
:100C300023439846CF4BED009B46002399468344BF
:100C400000933C037B005046240B5B0DFF0F002BF1
:100C500000D11FE1C64A934200D162E1C549420F6B
:100C60008C46E40059461443802263441204CB1A94
:100C700014439B46C200002033007B409A464B46FB
:100C80000F2B27D8BC499B00CB589F46B246009BF0
:100C9000022B16D0032B00D18EE2012B00D0D9E01D
:100CA00000230024002552461B052343D20713438B
:100CB0002800190005B0F0BCBB46B246A946A046C4
:100CC000F0BD00240025AA4BEDE7BA46A04615006A
:100CD0000090DCE7444500D2C7E100D1C2E1012326
:100CE0005B429C462E0040460025E3442302140E3E
:100CF0001C431B0C994623041F0C12024946009208
:100D00000197FFF723FA02007A430B04310C804667
:100D100019438A4207D901235B429C460919E044E2
:100D20008C4200D807E2881A4946FFF70FFA0904F7
:100D30008C4631046646019A090C42430300314354
:100D40008A4204D90919013B8C4200D8EDE1881A86
:100D5000424612041A4390464146009B0E041B0C67
:100D60001F000293009B360C1B04190C0B007343ED
:100D7000120C7E43039151437A431F0CBC467618F4
:100D80006644B14203D9802149028C466244310C49
:100D90008A1831041E04360C8E19904202D312D1E7
:100DA000B54210D24346591E009B9C4665441F0025
:100DB0009D429B415B421B19C018844200D2A0E1B6
:100DC00000D19BE18846AE1BB542AD41801A6D4211
:100DD000401B844200D1D5E14946FFF7B7F9019A9B
:100DE0000B044243310C050019438A4200D96CE1DF
:100DF000881A4946FFF7AAF9019A360442430904C2
:100E0000360C03000E43B24200D953E10398B61AE0
:100E100002002D041D43029F2B041B0C5A437B43ED
:100E20009C46290C4843130C8444634479439842FC
:100E300003D98020400284466144180C12041B042C
:100E4000120C41189B188E4200D2FFE000D1FAE04C
:100E500001231D43494A5A44002A00DCAAE06B07DB
:100E600000D03DE1ED084346DB0106D54246444B48
:100E70001A4090468022D2005A44424B9A4200DDEA
:100E80001FE743465B071D43434652055C02240BA4
:100E9000530D08E75246224300D17BE0002C00D1DD
:100EA000FAE0200001F052F902000B3A1D23010084
:100EB0009B1A52460839DA408C40144352468A4005
:100EC000314B58449B4683440020D5E64B46234390
:100ED000984644D0002C00D1CEE0200001F036F935
:100EE000010002000B391D235B1A49461000D9404E
:100EF000083884400B004D462343984685402348DC
:100F0000831A9B460023994600939AE64B46234357
:100F100098461DD108239946063B00258346009339
:100F20008FE65246224309D1022349461943184B02
:100F300089469C4600240220E3449DE603234A465A
:100F40001A43134B91469C4652460320E34493E6D2
:100F50000C239946093BA0468346009371E604237F
:100F6000994600239B4601330025009369E6C0465D
:100F7000FF07000001FCFFFFDC850000FF0300000D
:100F8000FFFFFFFEFE070000F30300000DFCFFFF64
:100F900001F8FFFF49460123194389460024012037
:100FA0006AE6002380249A4600258A4B24037AE6C9
:100FB00001256D4201239B1A382B00DD70E61F2BA3
:100FC00000DCBFE01F2149428A1A4146D1400A0095
:100FD000202B04D04146804B5B4499400D436B1E4F
:100FE0009D4107232A431D0000241540134200D1D0
:100FF000D4E00F2100231140042900D1CBE0111DC2
:101000009142924152429B180A00190200D4C2E058
:1010100001230024002546E6802341461B03194294
:1010200008D01C4206D11C432403BA461500694B64
:10103000240B38E68024434624031C432403B24691
:10104000644B240B2FE6002B00D103E7A619681E82
:10105000A64200D28DE08E4200D2A3E000D1B3E0E0
:101060000500F5E6AA4200D939E64346DE075808EE
:101070006B081E43ED0739E6484601F067F80100AA
:101080000200153120321C2900DC2CE74B460838C1
:1010900083400025984632E701F058F803001A0013
:1010A000153220301C2A00DC00E75446083B0022A1
:1010B0009C4005E73619013BB44200D9A6E6B2428E
:1010C00000D8A3E6831E3619A0E60919013D8C421B
:1010D00000D98DE68A4200D88AE6851E091987E67E
:1010E0000F232B40042B00D1BCE605235B42AB420F
:1010F0009B4104355B42ED089844B4E6AF4200D909
:1011000060E6824204D800D05CE6AE4200D859E6E0
:1011100002235B429C46009BE0449C4665449D4202
:101120009B415B421B19C0184DE68A4200D80EE66F
:10113000831E09190BE68A4200D8F4E5831E9846FF
:101140000919F0E52549280059448D4042468A4056
:10115000691E8D414146D840D94002432A430B00C5
:10116000510700D151E70F211140042900D046E773
:101170004BE705008E4200D06AE6009A934200D009
:1011800066E667E6164A5A44002A00DC10E70123A7
:101190000025984467E65D075B021C0BD20800231C
:1011A000154380E50098023D42008242BF417F42E4
:1011B0003C1936190092DDE78024434624031C4382
:1011C0002403044B240B6EE5009A9A42EAD30500EF
:1011D000D3E7C046FF0700003E0400001E040000E5
:1011E000FF030000F0B54E464546DE4657469046A2
:1011F000E0B517001A03120B0500844619480E03C8
:101200004C0091465A00DB0F9B46360B640DC90F0C
:10121000520D844219D0824210D0012094420ED146
:101220004E450CD10120C44509D1594517D0002C99
:1012300005D130002843431E984100E00120F0BC56
:10124000BB46B246A946A046F0BD330001202B4361
:10125000F5D1A242F3D14B463B43F0D1E2E7002067
:10126000EDE7C046FF070000F0B54746CE46040054
:10127000180016001B031B0B2D4D4A00994680B524
:1012800043000F03A446B0463F0B520DC90F5B0D40
:10129000C00FAA4221D0AB4213D0002A22D13C4336
:1012A000002B02D14D462E4322D0002C10D081427B
:1012B00022D00220013908400138C0BCB946B046EE
:1012C000F0BD4D462E4329D1002AF0D13C43EED14A
:1012D0000028F2D101204042EFE73D0025431DD117
:1012E0009342EED0002BE2D14C462643DFD1E0E71B
:1012F0000020002CE1D0DCE79A420ADCE8DB4F4515
:10130000D7D80ED000204F45D7D20029E2D0080010
:10131000D3E74342584140000138CEE70220404223
:10132000CBE7C445C5D80020C445C6D2EDE7C046CA
:10133000FF070000F0B54746CE460400180016002F
:101340001B031B0B2C4D4A00994680B543000F032D
:10135000A446B0463F0B520DC90F5B0DC00FAA4209
:101360000DD0AB4210D0002A27D13C43002B11D125
:101370004D462E430ED10020002C15D00EE03D002E
:10138000254310D1934218D14D462E430BD1002A4C
:1013900002D13C43002C0BD0814214D002200139F1
:1013A0000840013800E00220C0BCB946B046F0BD9C
:1013B0000028F9D101204042F6E7002BECD14C4641
:1013C0002643E9D1EAE79A4204DD4342584140000E
:1013D0000138E9E79A42EBDB4F45DFD806D0002021
:1013E0004F45E1D20029E5D00800DDE7C445D5D856
:1013F0000020C445D8D2F5E7FF070000F0B55746F6
:101400004E464546DE46E0B598460C034B000600C6
:10141000924687B0240B5B0DCF0F002B00D15CE10F
:10142000D94A934200D175E1420FE400144380226F
:1014300012041443D54AC500944663440093002324
:1014400099469B46434642461E03D20F5B005046D8
:101450009046360B5B0D00D120E1CB4A934200D180
:1014600062E1CA49420F8C4600996344F6008C46FB
:10147000164380229C44120463461643C200002097
:1014800000930099434601318C4649467B400193C5
:101490000F2926D8BE4B890059588F4643460193E1
:1014A0003400150083465B46022B16D0032B00D177
:1014B00003E2012B00D0CDE0002200240025019B97
:1014C00012052243DB071A432800110007B0F0BCC5
:1014D000BB46B246A946A046F0BD00240025AA4A54
:1014E000EDE7280C2D042D0C2B00110C1204120C0E
:1014F0005343984613002F00434399464F434F44AC
:10150000BB4647460B003F0CBA464343DA440293BE
:10151000D14504D980277F02B9464B4402935346F4
:101520001B0C9B4653461F0443461B041B0C98464A
:101530003B0043440493330C3604360C9846330086
:1015400043439946434643432F009A4643467743D5
:101550005D43380C4D444519A94503D980235B02EE
:101560009946CA443F04280C3F0C2D04ED19270C62
:101570002404240C0300200050437A4391463A008F
:1015800053440593030C9A464A43614349445144EA
:10159000AB44894503D980235B0299464A44000441
:1015A0000B0C000C090409182000994643467043AF
:1015B0005C437E435F43030C9846A41944444A4469
:1015C0000397A64204D980235B02984647440397B9
:1015D0002304029E9A46059B5E449846AE42AD4166
:1015E00076188E4289410004000C504440446D42FC
:1015F0004719B846934649428946C344D94498425C
:101600008041A845AD4193459241894589416D424C
:1016100040422843240C524249420A43039B00198A
:101620008018C7184B46DC0D049B75021D436A1ECB
:1016300095414B46F60D7F0235435A023C43154314
:10164000FB0100D41CE101216A080D401543E207AB
:10165000154364084F496144002900DCB0E06B0782
:1016600009D00F222A40042A05D02A1DAA42AD41E2
:101670006D4264191500E30104D58021464AC90072
:1016800014406144454A914200DD26E76207ED08B7
:10169000640249051543240B4A0D10E752463243B4
:1016A00000D17FE0002E00D1DCE0300000F04EFDE4
:1016B00002000B3A1D2301009B1A52460839DA40FA
:1016C0008E40164352468A40009B3549181A030043
:1016D0008C46634400200093D3E6250005434AD09E
:1016E000002C00D1B0E0200000F030FD010002002D
:1016F0000B391D2310005B1A310035000838844077
:10170000D94085400C432648831A0093002399460C
:101710009B4697E60500254326D108220093022325
:10172000002491469B468DE65246009B324310D1E1
:10173000154900268C466344494600930223194309
:10174000894602209DE65B460197022B00D0ADE65C
:10175000C3E60D4A0320944663444A46009303239C
:101760001A43914652468CE60C220093032305004F
:1017700091469B4666E60423994600230093013375
:1017800000249B465EE6C046FF07000001FCFFFF09
:101790001C860000FF030000FFFFFFFEFE070000A5
:1017A0000DFCFFFF4946012319438946002601200D
:1017B00067E6002380240025434A019324037EE644
:1017C0000120401A382800DD76E61F285BDD1F2245
:1017D00023005242511ACB401900202803D03B4A23
:1017E0006244944025436A1E95412A000A4307211A
:1017F0000D000024154011425BD00F210024114040
:10180000042953D0111D914292415242A4180A005A
:1018100023024BD501220024002550E680231B0320
:101820001C4209D01E4207D133431C034346150016
:10183000240B254A019342E6802212031443240319
:10184000214A240B01973AE600F080FC01000200D7
:10185000153120321C2900DC4BE734000838002504
:10186000844050E700F072FC03001A00153220306B
:101870001C2A00DC1EE75646083B00229E4023E758
:10188000009B9C46E6E61249220061442E008D40F2
:101890008A40C640691E8D4132432A43C4405307E3
:1018A000B6D00F2111400429ACD1B1E7650764021D
:1018B000240BD2081543002201E6802212031443B0
:1018C0002403014A240BFAE5FF0700003E04000050
:1018D0001E040000F8B557464E464546DE46E0B5C4
:1018E0001E0017004A000B03520D5B0A9046420F80
:1018F0001A43CD0FCD4C3103C300944670007A0FCC
:10190000490AFF009A46B946400DF60F1143A0421E
:1019100000D1B1E001225640B346B54200D188E083
:101920004246121A002A00DCAEE0002800D1C1E0D5
:10193000BE48804500D151E1802000040143382A8F
:1019400000DD7BE11F2A00DDEEE120203E00801A51
:101950000C00D640D140874062468440521A781E1F
:101960008741944634432743DC1BA3429B41624694
:101970005B42D31A99464B461B0200D418E14B46F2
:101980005802430A99464B46002B00D137E148469E
:1019900000F0DCFB010008392023220048465B1AD6
:1019A000DA4088408C4043461043884500DD36E1EC
:1019B000C91A4B1C1F2B00DDEAE020222600D21A98
:1019C00001009440DE40D84000239140621E9441C3
:1019D0008146984631430C43630709D00F232340C7
:1019E000042B05D0231DA342A4416442A1441C0042
:1019F0004B461B0200D4DEE041468C4B013199423C
:101A000000D1E7E04B468A48E40803401800490546
:101A10005B07400223434A0D040B1205ED072243E6
:101A20002A4318001100F0BCBB46B246A946A046A6
:101A3000F8BD4246121A002A52DD002800D19CE06F
:101A4000A04500D1CAE0802000040143382A00DD0F
:101A500049E11F2A00DC97E110000E002038C64043
:101A6000202A04D04020821A91400F43B9464C46A8
:101A7000621E944134433AE10A003A4328D0B34607
:101A8000B5422BD06B4A4244002A5DD042464446C0
:101A9000821A002C00D0F5E065461D4300D19CE180
:101AA000551E012A00D1FBE1604CA24200D1BDE1EC
:101AB0002A00F0E00800384300D1C3E0501E012A9C
:101AC00000D1A8E1594CA24200D187E0020036E7DC
:101AD00001225640B346B54200D021E7554A424460
:101AE000002A00D1B5E042464446821A002C00D1BB
:101AF00038E14E4EB04200D1DEE180266446360425
:101B00003443A446382A00DD96E11F2A00DD24E292
:101B10002026B41AA24664465646B440A1461C008C
:101B20004E46D440264334005646B3405E1EB34171
:101B30001C436346D340C918E419BC42BF417F42ED
:101B4000B94680468944D8E040463B4C01302042AB
:101B500000D0B4E04046002800D044E1604618437D
:101B600000D190E10800384300D0AAE16146DB08CB
:101B700049070B436146CC0827E00800384361D091
:101B8000501E012A00D139E1A24227D002005DE7B0
:101B900002001F39CA401100202B03D04022D31A63
:101BA00098400443631E9C410023994698460C4389
:101BB000630700D012E74B464A46E4085B0723431D
:101BC000D408424619498A420ED024035205240BF8
:101BD000520D22E70A00002400231EE7DB086246BC
:101BE000520713436246D4081A00224300D1FCE195
:101BF00080221203144324030C4A240B0DE7200017
:101C000000F0A4FA010018311F2900DCC4E60838EE
:101C10008440434620000024884500DCC8E6044A8E
:101C20005B1A104098468146D6E6C046FF07000082
:101C3000FFFF7FFF01F8FFFFFE0700000F437A1E42
:101C4000974191E66146DB0849070B436146CC08A2
:101C5000B8E74046D34C0130204200D0A2E04046D5
:101C6000002800D001E16046184300D15EE1080081
:101C7000384300D05FE16146DB0849070B4361460A
:101C8000CC08A2E7C84DA84200D1CFE08025644629
:101C90002D042C43A446382A56DC1F2A00DDD1E04F
:101CA00020251E00AD1A6446AB40AC40D6405D1EF8
:101CB000AB41344323436446D440091B49E06046AA
:101CC000DC1B461AA34280414042814630004E460A
:101CD000801B8146000276D44B46234300D052E657
:101CE0000024002571E739430C00621E9441E4187A
:101CF0009C429B415B42634499464B461B0200D485
:101D000056E701239C46A84BE044984538D04B4603
:101D1000A648012203401800630814401C43C3076F
:101D20001C434308994657E610000E002038C64071
:101D3000202A04D04020821A91400F43B9464F46D2
:101D40007A1E974137430FE662461A4313005A1E24
:101D50009341FC1AA742BF417F42CB1B99465D4687
:101D6000804608E666461E4300D1BEE0561E012AA4
:101D700000D109E18C4CA24200D119E13200C1E648
:101D800042460024002348E620200C00801A3E0032
:101D900087408440D640781E8741D14034433C433D
:101DA0008C44A4E7804A904200D1E9E0DF199F42C9
:101DB0009B4161445B42C918CC077F084B08994698
:101DC00080463C43F4E6FC1AA742BF4163467F428B
:101DD000C91ACB1B99465D46D5E5FF084B075D4602
:101DE0003B43CC08EEE662461A4300D082E00B008B
:101DF0003B431BD1802400252403F9E6DC199C42D7
:101E00009B41614489465B4299444B461B0244D442
:101E100001239846CCE6DC1B6246A3429B41511A43
:101E20005B42CB1A994601239846A4E5FF084B076D
:101E30005D463B43CC08D7E662461A431400631E56
:101E40009C4179E615006446203DEC40A046202ADE
:101E500005D040256446AA1A944023439A46544626
:101E6000631E9C414346234373E762461A4323D0D3
:101E70000A003A4300D0A0E06246DB085207134351
:101E80006246D408B0E60B003B4300D128E7FF08C8
:101E90004B075D463B43CC0897E60223984636E75E
:101EA000FC1AA742BF4163467F42C91ACB1B994621
:101EB00001235D4698465EE54B07FF083B43CC088F
:101EC00092E6DC1B6046A342B641401A7642801B74
:101ED0008146000260D5FC1AA742BF4163467F429B
:101EE000C91ACB1B99465D4676E5FF084B073B4375
:101EF000CC0867E60A00DB083A4300D16FE6624689
:101F0000520713436246D40880221203144207D0BA
:101F1000C808104204D15D460400FB0849070B4382
:101F20005A0FDB00DB08520713435DE64B07FF083F
:101F30003B43CC0849E6DC199C429B4161448946FD
:101F40005B4299444B461B0200D431E64A46174B8C
:101F50001A400123914698462AE616006446203E20
:101F6000F440A046202A05D040266446B21A944088
:101F700023439A465446631E9C4143461C43DBE57B
:101F800002000024002348E5DC19BC42BF41614443
:101F900089467F42B94438E74B46234300D19FE648
:101FA00006E6C046FE070000FF070000FFFF7FFFB8
:101FB000FF084B073B43CC0816E66246DB08520796
:101FC00013436246D40880221203144207D0C80883
:101FD000104204D15D460400FB0849070B435A0F29
:101FE000DB005207DB081343FEE50023014A1C0017
:101FF00013E5C046FF07000070B505000C481C0340
:1020000016005B000A034900120B490D240B5B0DFF
:10201000814208D0064A0020934203D12000304379
:10202000431E984170BD01202A43FBD1F2E7C04610
:10203000FF0700000A0030B5134C530009030500E8
:10204000090B00205B0DD20FA34204DD0F48834231
:1020500002DD0F4BD01830BD8020400301430D48F6
:10206000C01A1F2808DD0C48C31AD9400B0058427B
:10207000002AF0D11800EEE7084CC540A44663449E
:1020800099400B002B43F2E7FE0300001D04000003
:10209000FFFFFF7F3304000013040000EDFBFFFF90
:1020A00070B5002816D0C317C5185D40C40F2800AE
:1020B00000F04CF8114A121A0A2816DC03002E0010
:1020C00015339E400B23181AC54052052D032D0BC6
:1020D000530D03E000240023002500261B052B439D
:1020E000E40723433000190070BD0B3885405205CA
:1020F0002D0300262D0B530DF0E7C0461E040000F3
:1021000010B5041E10D000F021F80F4B1B1A0A283E
:1021100011DC0B222100121AD14015300A035B0595
:102120008440120B5B0D01E0002300221B051343CA
:102130002000190010BD22000B3882405B051203FD
:102140000024120B5B0DF1E71E0400001C2101238B
:102150001B04984201D3000C10391B0A984201D38A
:10216000000A08391B09984201D30009043902A268
:10217000105C40187047C0460403020201010101CF
:10218000000000000000000010B5002903D1FFF797
:10219000DDFF203002E00800FFF7D8FF10BDC04689
:1021A000F0B5C646A026E923032200B5DB00F605FC
:1021B000F25082B000F0A0F8154800F07DF9154B00
:1021C000002598460027144C0197019BA34205D88F
:1021D000019B01330193019BA342F9D980220F4B4C
:1021E000D202F2500097009BA34205D8009B013316
:1021F0000093009BA342F9D9A1238022DB00D202E5
:1022000029004046F25000F057F90135DCE7C0469E
:102210005C8600006C8600003FE201000C050000B7
:10222000FEE7C046FEE7C0460D480E4B10B598428B
:1022300007D2013B1A1A920801320B49920000F0B2
:1022400095F80A480A4B984207D2013B1A1A92089D
:1022500001320021920000F0DBF8FFF7A1FFFEE75A
:1022600000000020AC0900204C8D0000AC090020CB
:10227000F411002070B5161E07DD0C008D182078B3
:10228000013400F063F8AC42F9D1300070BDC046B3
:1022900006490B881A188020C000824203DA0448DD
:1022A0000A801818704701204042FBE7AC1100205B
:1022B000AC09002009220120014B40421A607047FE
:1022C000B0110020002070470020704780239B0140
:1022D00000204B607047C0460120704710B5FFF7E3
:1022E0009FFFFEE716220120014B40421A60704713
:1022F000B011002001207047A023A1228021DB051E
:10230000D200C9049950ED220321D2009950094B03
:10231000094A0A4999500021094A9950094A1A3133
:1023200099500C3A1639995001229A60064A1C318C
:1023300099507047002000402405000000E0D701BC
:102340006C0500000C0500001C0500008E21054AEC
:1023500049005358002BFCD000235350024BD0505F
:102360007047C046002000401C050000F0B5C6467E
:1023700000B50F2A41D903270D003E0005430C008C
:1023800003002E402F423DD11500103D2D09A846D7
:102390002D01AC46844427681D001F6067685F609C
:1023A000A7689F60E7681034DF6010336545F2D19D
:1023B00045460F230C2401352D01491913404519B9
:1023C000144222D08C59AC5104369C1B032CF9D8F2
:1023D000043B9B0801339B00ED18C91803231A40E6
:1023E000561E002A06D00023CC5C1A00EC540133A0
:1023F0009642F9D180BCB846F0BD0500561E002AB1
:10240000F1D1F7E70500561EEDE71A00F6E7C046E2
:10241000F0B50500830749D0541E002A45D00300BB
:102420000326CAB202E00135013C3ED301332A70D3
:102430003342F8D1032C30D9FF220A40150215434C
:102440002A0415430F2C34D92700103F3F093E01C1
:10245000B4461E001A00103666441560556095603B
:10246000D5601032B242F8D101373F01DB190F2796
:102470000C22274022403C00002A0ED03E1FB60806
:10248000B400A4461A001C1D644420C2A242FCD120
:1024900003240136B6009B193C40002C05D0C9B27C
:1024A0001C19197001339C42FBD1F0BD03001400CC
:1024B000C0E72700E2E7C0460FB400B5064983B085
:1024C00004AB086804CB8168019300F007F803B0FF
:1024D00008BC04B01847C04600000020F0B5DE4636
:1024E0004E4645465746E0B5D7B0834689469046A6
:1024F0001C000F9303F01CFA036818001C9304F0EF
:102500003DFA5B461B90002B03D09B6B002B00D148
:102510005AE24B465B6EDB0700D5B3E04B460C211D
:10252000595E4B469B899A0500D4A7E08022920110
:10253000134209D10A434B4649469A81496EDE4B04
:102540000B4049464B6693B21A0746D54A46126974
:10255000002A42D01A221A400A2A4CD02DAB2A93C4
:10256000002300242C932B931593002346461693A7
:10257000179400231D931E931A931F93209309937E
:102580003378C8462DAF002B00D123E1340003E09F
:1025900063780134002B5BD0252BF9D1A51BB44205
:1025A0005AD12378002B00D114E1631C0693002339
:1025B0001CAAD376012252420892002263785D461B
:1025C00014000A92069A013206921A00203A5A2AF8
:1025D00069D8BA4992008A5897464946584601F048
:1025E000E5FD4B46002801D001F038FC1A229B89FA
:1025F0001A400A2AB2D14A460E21525E002AADDBA9
:102600004A46526ED20703D49B0501D401F01BFA4F
:10261000230042464946584601F082FD099000F0E9
:10262000A7FC280003F084F943681800209304F005
:10263000A5F981461F90280003F07AF983681A9360
:102640004B46002B01D000F054FE069B1B78B9E7E7
:10265000A51BB44200D1BDE02C9B3E605B192C93BE
:102660002B9B7D60069301332B93072B10DC0837DF
:10267000099B9C46AC446346099392E74B46986D90
:1026800003F05EF94B460C21595E4B469B894DE7A2
:10269000414658462AAA04F019FA002801D001F050
:1026A000A0FC2DAFE4E7A246AB461293002B00D16D
:1026B00090E03DAE337000231CAAD37600220E9228
:1026C000013201330B9200220793002308921892E3
:1026D00013921492022251461140109151460A421F
:1026E00002D0079A0232079284225146114011917A
:1026F00051460A4205D10A9A0799541A002C00DD66
:10270000CDE02C9C002B11D01CAA1B2394466344C3
:102710003B6001237B602B9B0134199301332C9484
:102720002B93072B01DD00F059FC0837109B002B81
:102730000ED023AB3B6002237B602B9B02341093B3
:1027400001332C942B93072B01DD00F03CFC083760
:10275000119B802B00D173E3089B0B9A9D1A002DCF
:1027600000DDADE35346DB0500D50EE30B9B3E6079
:102770009C467B602B9B6444089301332C942B93E1
:10278000072B00DD15E1083753465B0706D50A9B8A
:10279000079A9E1A002E01DD00F02BFC0A9B079A77
:1027A000934200DA1300099A94469C4463460993C5
:1027B000002C00D0C1E300232B930E9B002B03D0F1
:1027C00058460E9902F0AEFF069E2DAF3378002BCF
:1027D00000D0DBE62C9BC1460693002B01D001F014
:1027E00046F800232B93B7E3303B00201A000699EC
:1027F000830018180B001B78400010181A00303A9C
:102800000131092AF4D906910A90DEE612930723D2
:10281000A2460F9CAB4607349C43220018CA16936D
:102820001794169B179C0F921D00012264006408E8
:1028300028002100224B5242FFF7DEFB002801D086
:1028400000F098FD0122280021001D4B5242FDF7A7
:102850008DFD002801D000F08DFD169817990022FB
:102860000023FDF779FD002801D000F0FBFF1CAB31
:10287000DB7E129A472A01DC00F0E1FF114E802234
:10288000514691437D3A079200228A460E920332C6
:102890000B920022089218921392149268E12C9ADB
:1028A0002B9B094D102C31DD1021894639004746FC
:1028B000B0465E460EE0C046FFDFFFFFBC8600006C
:1028C000FFFFEF7F7C86000028880000103C083165
:1028D000102C17DD4846103201330D6048602C92F1
:1028E0002B93072BF2DD390030002AAA04F0EEF812
:1028F000002801D000F0E5FE103C2C9A2B9B2DA95E
:10290000102CE7DCB3464646B8460F007C60013326
:10291000A4183D602C942B93072B01DD00F0C3FE1F
:102920001CABDB7E0837EDE6159B3E60012B01DC1E
:1029300000F01DFC01237B602B9B01345D1C2C945B
:1029400008932B95072D01DD00F093FE08371C9BA3
:1029500001353B601B9B2B959C4664447B602C940B
:10296000072D01DD00F092FE083700221698179916
:102970000023FDF7EBFC002801D000F016FC159BAE
:102980000136013BE41801353E607B602C942B95A9
:10299000072D01DD00F0FCFB083726AB3B601E9BDA
:1029A00001359C4664447B602C942B95072D00DCFC
:1029B000E9E6414658462AAA04F088F8002800D0E3
:1029C000C3E22C9C2DAFDFE6584602F0BDFDA0E52A
:1029D00020231C43069B1B78F4E512930023A24698
:1029E0000F9C1CAA40CCAB46D376002E01D100F040
:1029F0000BFE089A531C01D100F09CFE0021300010
:102A000003F0D6FA0E90002801D101F0BDF90E9B1B
:102A1000991BCA43D2170B91114000221CABDB7EDD
:102A200007910F940E9208921892139214929FE0BD
:102A3000A2460F9C129308CC3DAE337000231CAA13
:102A4000AB46D3760F9439E60F9A08CA0A93002B47
:102A500001DB00F015FC0A9B0F925B420A930423F2
:102A60001C43069B1B78ADE52B231CAAD376069B43
:102A70001B78A7E580231C43069B1B78A2E5069BD9
:102A8000581C1B782A2B01D101F01DFB1A000021D4
:102A9000303A84460891092A01D901F0AFF90020A3
:102AA0006146830018180B001B78400080181A003C
:102AB000303A0131092AF4D90691089085E50123BD
:102AC0001C43069B1B787DE51CABDB7E002B00D0F6
:102AD000BBE520231CAAD376069B1B7872E5069BD8
:102AE0001B78682B01D100F080FD4022144369E57A
:102AF000A2461293102453462343AB461C00A30660
:102B000000D48FE307220F9B0733934319000CC9AE
:102B10000C920D9301230F9100221CA9CA760898EC
:102B2000421C00D1C6E08022210091438A460C99C4
:102B30000D9A0D00154300D0BBE0002801D000F035
:102B4000EAFD002B62D101331A0022400B9256AEEF
:102B5000234200D0C4E3089A0B991CABDB7E07929A
:102B60008A4200DA079100220E9218921392149270
:102B7000002B00D1AEE5079A01320792AAE52200A8
:102B8000129310231A43AB46924653469B0600D439
:102B90003DE307230F9C07349C43220018CA0C9383
:102BA0000D940F925346CB4C23401C000023B3E7F7
:102BB00008231C43069B1B7804E522001293102374
:102BC0001A43AB46924653469B0600D435E307238F
:102BD0000F9C07349C4301339C46A44463462268FF
:102BE0000F9363680C920D93002B00DA31E3089B7E
:102BF000544601330FD080239C430C9A0D9B110047
:102C0000194308D1089B002B0BD1A246002356AED6
:102C100008930B939FE70C9A0D9B002B78D1092A00
:102C200076D863220C9B3DA930338B5401230B9340
:102C30001CABE7269C46A24666448CE70F9BA24647
:102C400004CB02240C9200220D92524630212243E2
:102C5000140023AA11704831517078220F939E4BB3
:102C6000AB461D931292022356E72300AB469B0608
:102C700000D550E32300DB0601D500F053FD23000F
:102C80005B0601D500F00BFE23009B0501D400F08C
:102C900049FD0F9C099A08CC069E1A700F9495E581
:102CA000069B1B786C2B01D100F097FC102214437B
:102CB00088E45446012BAED056AE022B00D166E11B
:102CC0000723A146BA469C460C9A0D9B5F07D50880
:102CD0006146D8082F4303003800114034003031DA
:102CE000013E3A0031701843F0D125004C4657465A
:102CF0000C920D93E20743D5302941D03023013E99
:102D0000023D337056AB5B1BCA462E000B9322E785
:102D100080250023ED002540BA46A94607941F00F0
:102D20000C9C0D9D56AE0BE00A22002320002900CA
:102D3000FDF73AFB002D01D100F080FF04000D00EB
:102D40000A22002320002900FDF72EFB4B46013EFE
:102D5000303232700137002BE6D01A9B1B789F422D
:102D6000E2D1FF2FE0D0002D01D000F060FC092C53
:102D700001D900F05CFC159757460C940D95079C03
:102D800056AB9B1BA2460B93E5E6129B652B00DC22
:102D9000CAE51698179900220023FDF7D7FA0028F4
:102DA00000D15FE14D4B01343B6001237B602B9BE5
:102DB0002C94089301332B93072B01DD00F090FC3A
:102DC0000837249B159A934200DB4FE21C9B3B6023
:102DD0001B9B9C467B602B9B6444089301332C9483
:102DE0002B93072B01DD00F003FC0837159B5D1EBC
:102DF000002D00DCC8E43A4A2B9B9146102D01DCE3
:102E000000F07CFC220010264C4605E00837103DFF
:102E1000102D01DC00F070FC103201333C607E604C
:102E20002C922B93072BF1DD414658462AAA03F03A
:102E30004DFE002800D088E02C9A2B9B2DAFE6E7B2
:102E40000A9B079A9D1A002D00DC85E4244A2B9BDF
:102E50009146102D23DD22004C46B1465E4603E02C
:102E6000103D0837102D16DD1021103201333C6063
:102E700079602C922B93072BF2DD414630002AAA71
:102E800003F024FE002800D0E9E0103D2C9A2B9B93
:102E90002DAF102DE8DCB3464E46A14614004A463D
:102EA000641901333A607D602C942B93072B00DD6D
:102EB0004FE3089B0B9A08379D1A002D00DC51E464
:102EC000074A2B9B9146102D2BDD22004C46B14624
:102ED0005E460BE0FFFBFFFF88860000B88600001F
:102EE00038880000103D0837102D16DD10211032F3
:102EF00001333C6079602C922B93072BF2DD414625
:102F000030002AAA03F0E2FD002800D0A7E0103D1F
:102F10002C9A2B9B2DAF102DE8DCB3464E46A146D4
:102F200014004A46641901333A607D602C942B9357
:102F3000072B00DD5FE1083714E4414658462AAA12
:102F400003F0C4FD002800D135E4C1460E990029E4
:102F500002D0584602F0E6FB4B465B6EDB0713D40B
:102F60004B469B899A050BD55B0601D500F081FF86
:102F7000099857B0F0BCBB46B246A946A046F0BD82
:102F80004B46986D02F0DEFC4B469B89ECE70F2028
:102F90000C9A0D9BA446B9461D9F01001140795C17
:102FA0001C071509013E2C43317019090B00210043
:102FB00022001943F1D10C920D9356AB9B1B4F4647
:102FC000E2460B93C7E5414658462AAA03F07EFD28
:102FD0000028BAD12C9C2DAFFFF7BAFB41465846CA
:102FE0002AAA03F073FD0028AFD12C9C2DAFFFF768
:102FF0009DFB2B9BDC4D102E1DDD1022914603E026
:10300000103E0837102E16DD4A46103401333D605D
:103010007A602C942B93072BF2DD414658462AAA5E
:1030200003F054FD002800D08FE7103E2C9C2B9B12
:103030002DAF102EE8DCA419013360C72C942B931C
:10304000072B01DCFFF7AAFB414658462AAA03F0EA
:103050003DFD002800D078E72C9CFFF79FFBB3468E
:10306000C14673E72499002900DC0EE1149A159BF0
:1030700015009A4200DD1D00002D0CDD2B9B64190C
:10308000089301333E607D602C942B93072B01DD68
:1030900000F0FAFD0837EB43DB171D40149B5D1B66
:1030A000002D00DD7BE3149B9C465346B4446546EB
:1030B0005B0501D500F00FFD249B159A934203DBBD
:1030C0005246D20700D4E0E31C9A3A601B9A944619
:1030D0007A602B9A6444089201322C942B92072A2E
:1030E00001DD00F0DEFD083715998C46CB1A6644E9
:1030F000721B1E00934200DD1600002E0CDD2B9A81
:10310000A419089201323D607E602C942B92072A0C
:1031100001DD00F051FE0837F543ED1735405D1B2A
:10312000002D01DCFFF730FB904A2B9B9146102DC0
:1031300000DCE3E2220010264C4604E00837103D94
:10314000102D00DCD8E2103201333C607E602C92FE
:103150002B93072BF2DD414658462AAA03F0B6FC12
:10316000002800D0F1E62C9A2B9B2DAFE7E7012336
:103170005246134201D0FFF7DDFB7B602B9B0134ED
:103180005D1C2C9408932B95072D01DCFFF704FCA4
:10319000414658462AAA03F099FC002800D0D4E6FC
:1031A0002C9C2B9D2DAFFFF7F8FB159B5E1E002E70
:1031B00001DCFFF7F2FB6D4B9946102E05DCBFE2F8
:1031C0000837103E102E00DCBAE24B463B6010235D
:1031D000103401357B602C942B95072DF0DD414692
:1031E00058462AAA03F072FC002800D0ADE62C9CB9
:1031F0002B9D2DAFE5E7414658462AAA03F066FC11
:10320000002800D0A1E62C9C2DAFFFF7ABFA534667
:10321000DB0600D490E00F9C08CC0C9300230F94A5
:103220000D93BFE4E30600D47FE00F9B04CB0C9228
:1032300000220F930D9201236EE45346DB0600D467
:1032400086E00F9C08CC0C93DB170D930F9400D4F1
:10325000CDE40C990D9A00244B4294410C930D94AB
:103260002D231CAAD37654462C3B58E45346DB0747
:1032700001D4FFF789FAA9E5A246AB461293A2E46E
:10328000069B0F921B78FFF79DF9394B01343B6089
:1032900001237B602B9B2C94089301332B93072BEA
:1032A00001DD00F0D1FC0837002900D054E252467D
:1032B00001231340159A134301D1FFF765FA1C9BB4
:1032C0003B601B9B9C467B602B9B644408930133B3
:1032D0002C942B93072B00DDA7E33A0008324EE233
:1032E000302162333DAAD1541CABE7269C4666448C
:1032F00031E41A9B002B01D1FFF7A7F91A9B1B7829
:10330000002B01D1FFF7A1F98023DB001C43069BB2
:103310001B78FFF757F90F9C099A08CC069E1A6094
:10332000D2175A600F94FFF751FA630600D466E291
:103330000F9B04CB92B27AE753465B0600D451E26E
:103340000F9C08CC9BB20C9300230F940D9329E49F
:1033500053465B0600D459E20F9C08CC1BB20C9379
:10336000DB170D930F943FE4288800003888000095
:10337000B88600001698179902000B00FEF73CFE75
:10338000002801D000F030FE129B612B01D100F02B
:10339000ABFD412B00D197E2089B013301D100F036
:1033A000C8FD2023129A9A430B92472A01D100F0BC
:1033B000ABFD802352465B001A4318921699179A68
:1033C000002A01DA00F05AFD00230D0091461993FE
:1033D0000E930B9B462B01D100F07AFC452B01D1BB
:1033E00000F067FD28AB049325AB039324AB029355
:1033F000089B2A0001930223584600934B4600F095
:10340000E7FF0B9B0600472B01D000F075FE5346EB
:10341000DB0701D500F01BFD52460792189A289B46
:1034200092469B1B15930B9B472B00D11EE30B9BD6
:10343000462B01D100F08EFC249B1493149B5C1E40
:103440000B9B2494412B01D100F0AEFD48226B462A
:103450009B1800221B7828201CA909180B702B230D
:10346000002C03DA0124149BE41A2D2329201CA923
:1034700009180B70092C01DC00F080FD1CAA372311
:10348000944663441D00BA46B14620000A21FCF769
:1034900047FF2E003031013D200029700A21FCF742
:1034A00059FE27000400632FEFDC4B46B1460100B4
:1034B0001CA81E0037224B4684463031023BC9B25D
:1034C000624457461970934201D300F00EFE2A223F
:1034D000624400E019781CA811708446372101333A
:1034E000614401328B42F5D139234A4663449B1A29
:1034F0002A226244944626AA63449B1A1E93159B73
:103500001E991A008C4662440B92012B01DC00F0DC
:10351000AFFD1B9A0B9B944663440B93E44B079AB5
:103520001A401300802252001A4392460B9AD3434A
:10353000DB171A4000230792189313931493199BD7
:10354000002B00D0C0E200221CABDB7E0892FFF70C
:103550000FFB414658462AAA03F0B8FA002800D0CB
:10356000F3E42C9C2DAFFFF7F7F8A246AB4612937D
:10357000D04B1D9353469B0671D507230F9C0734F0
:103580009C43220018CA0C930D940F925346DB07FC
:103590000DD50C9A0D9B1100194308D0302223AB96
:1035A0001A70129A5A70524602231A439246534690
:1035B000BF4C23401C000223FFF7AEFAAB46129328
:1035C000FFF79DFAA246AB461293FFF7DEFA12937D
:1035D000B94BA246AB461D93CCE74C3B069A1C4325
:1035E000013213780692FEF7EDFF9933FF33F5E7CA
:1035F000414658462AAA03F069FA002800D0A4E4FC
:103600002C9C2DAFFFF7F2FB089B0793062B00D9EC
:1036100038E1002300220E93079BA84E0B930F94D2
:1036200000230892189213921492FFF753F81F9BED
:103630002099F61A1A00300003F0CEF91A992000EA
:103640004B788C465A1E93419C4463460A221A9337
:1036500029000023FCF7A8FE0027FFF76FFB534665
:10366000DB0631D50F9C08CC0C9300230F940D93EF
:103670008CE7414658462AAA03F028FA002800D0D1
:1036800063E42C9C2B9D2DAFFFF761F94146584612
:103690002AAA03F01BFA002800D056E42C9C2B9D8C
:1036A0002DAFFFF762F9414658462AAA03F00EFAF9
:1036B000002800D049E41CABDB7E2C9C2DAFFFF72B
:1036C00021F8B346B94641E453465B0600D4AAE06C
:1036D0000F9C08CC9BB20C9300230F940D9355E7DD
:1036E000414658462AAA03F0F1F9002800D02CE4FC
:1036F0002C9C2DAFFFF765FBA14614004A466419C8
:1037000001333A607D602C942B93072B01DCFFF78B
:103710003AF8FFF74EF95446012B01D0FFF7CCFAE7
:10372000FFF77FFA0F9C099A08CC1A60069E0F9447
:10373000FFF74CF8300003F021F90100FFF769F9B9
:103740004B46A41901353B607E602C942B95072DC8
:1037500001DCFFF721F91BE51C9B3B601B9B9C4692
:103760007B602B9B6444089301332C942B93072B91
:1037700000DD5AE13A000832002900DA41E31599E8
:1037800001338C466444166051602C942B93072BB4
:1037900001DDFFF70EF908321700FEF7F5FF484A82
:1037A0002B9B9146102D51DD22004C46B1465E46C2
:1037B00003E00837103D102D44DD10211032013395
:1037C0003C6079602C922B93072BF2DD4146300050
:1037D0002AAA03F07BF9002800D040E42C9A2B9B06
:1037E0002DAFE7E753460F9C9B0500D414E508CCAA
:1037F000DBB20C9300230F940D93FFF7D3F9A305CD
:1038000000D412E50F9B04CBD2B210E553460F9CB7
:103810009B0500D416E508CC5BB20C93DB170D9327
:103820000F94FFF7E1F953460F9C9B0500D41AE76C
:1038300008CCDBB20C9300230F940D93A6E6214E27
:10384000FFF71DF8B3464E46A14614004A466419D8
:1038500001333A607D602C942B93072B00DDF8E058
:10386000083720E42D231CAAD376FFF702F841463F
:1038700058462AAA03F02AF9002801D1FEF7B1FF21
:10388000FFF76AFB06230793C3E6159A944666443E
:10389000D31A761B9E4200DC3EE41E003CE40F9CE3
:1038A000099A08CC069E1A800F94FEF78FFFC04637
:1038B000FFFBFFFF888600009C860000B0860000AA
:1038C0003888000078860000302223AB1A70283236
:1038D00002245A7053461C43089B632B00DDFAE216
:1038E00000233DAE0E9381231698179952465B0034
:1038F0001A431892002900DA4DE22022129D00237B
:1039000095430B95A246050089461993129B612B9E
:1039100000D14FE3412B00D05BE5280024AA4946A3
:1039200002F098FFFF2300229B05FDF767FD0022B0
:10393000002304000D00FCF709FD002801D001233D
:103940002493DF4B0793089BB1469C46B4446346DF
:103950001393013B149353462197C246159306E0F7
:1039600000220023FCF7F2FC002800D0C1E2002274
:10397000D44B20002900FDF741FD0D000400FEF7A7
:1039800059FB0700FEF78CFBB04602000B0020003D
:103990002900FDF79FFF4246079B0136DB5D0400CF
:1039A0001370149B0D009B1A1093139B11964345A3
:1039B000D6D1159BD0469A464B46B1461E000123F0
:1039C00013975B42219F149210930022200029003C
:1039D000BD4BFCF7D5FC002800D052E200222000AD
:1039E0002900B94BFCF7B2FC002803D0139BDB077E
:1039F00000D546E2109B302219004944002B0CDB15
:103A00004B4618001A7001338142FAD1119A109B6B
:103A1000944601339C4463461193119B9B1B159361
:103A200053460793189B9A46FDE4414658462AAAF6
:103A300003F04CF8002801D0FFF787FA24992C9C5A
:103A40002B9B2DAA98E64B46986D01F07BFFFEF765
:103A5000DFFD414658462AAA03F038F8002801D075
:103A6000FFF773FA2C9C2DAFFFF71DFB249B1493DB
:103A7000DA1C02DB089A934207DD129B023B1A0014
:103A8000129320239A430B92D8E4149B159A9342E5
:103A900000DAA1E1079A0B93D20703D51B9A94464B
:103AA00063440B93079B5B0503D5149B002B00DD40
:103AB000A5E20B9AD343DB171A40672307921293B0
:103AC0000023189313933AE52D231CAAD3760022E2
:103AD0000892FFF750F8159B13999C46B44463462F
:103AE0000B937A4B2200994653461093189B2C0057
:103AF0009A4611963B001A9F002933D0514600295F
:103B00007ED11399013F01391391209919601F99B2
:103B10008C4659602B996244089101312C922B916B
:103B2000072972DC08330B99081B39780D00814294
:103B300000DD0500002D0BDD2B9952190891013194
:103B40001C605D602C922B9107296ADC3978083360
:103B5000E843C01705404D1B002D17DC641813996E
:103B60000029CBD1514600294AD1119E1A971F0036
:103B7000159B1099F318200025008A4614009842DE
:103B800001D8FFF799FA1D00FFF796FA48462B99DE
:103B90000890102D27DD5846A34644461026B84607
:103BA0002700040003E0103D0833102D15DD4846C2
:103BB0001032013118605E602C922B910729F2DDE2
:103BC000390020002AAA02F081FF002858D1103DB8
:103BD0002C9A2B992DAB102DE9DC260038005C4681
:103BE0004746B346804608985219013118605D6017
:103BF0002C922B91072935DC397808336418AEE70D
:103C0000012149428C46E2447FE7414658462AAAB0
:103C100002F05CFF002801D0FFF797F92C9A2DAB3A
:103C200081E7414658462AAA02F050FF002801D0F9
:103C3000FFF78BF939782C9A2DAB89E7092C01D93C
:103C4000FFF77CF8FFF797F8414658462AAA02F09A
:103C50003DFF002801D0FFF778F924992C9C2DAF67
:103C6000FFF722FB414658462AAA02F02FFF002800
:103C700001D0FFF76AF939782C9A2DAB64186EE7FA
:103C8000A346B946FFF762F9414658462AAA02F010
:103C90001DFF002801D0FFF758F92C9C2DAFFFF72E
:103CA000FAF9414658462AAA02F010FF002801D02E
:103CB000FFF74BF9249B2C9C2DAFFFF715FAC0465C
:103CC0009C860000000030400000E03F3888000083
:103CD00028AB049325AB039324AB0293089B2A00E3
:103CE00001930323584600934B4600F071FB037881
:103CF0000600302B21D0249C089B9C4664445346EC
:103D00000793189B34199A4600230022280049463D
:103D1000FCF71CFB2300002801D0FFF782FB289B47
:103D2000A34201D3FFF77DFB30215A1C2892197062
:103D3000289B9C42F9D8FFF774FB0022002328003F
:103D40004946FCF703FB0028D5D10124089BE41A5F
:103D50002494D1E7249A01231492002A00DC92E1F2
:103D600007990B4008990B4300D077E1149B0B9304
:103D700066231293079B5B0500D542E10B9AD34360
:103D8000DB171A4007929BE6089A1CABDB7E079272
:103D90000F94FEF77DFD2023A246129A9A430B92C0
:103DA0008022169B179C12061D0094462300634434
:103DB00099462D231993A9E5414658462AAA02F0AF
:103DC00085FE002801D0FFF7C0F8159B249A2C9C93
:103DD0009B1A2DAFFFF7A0F91B9A159B94466722FB
:103DE0001292149A63440B93002AC3DC981A421C63
:103DF000D343DB170B921A40079261E60690FEF759
:103E0000E4FB4D42103100DB73E1C14910278946C4
:103E100021004C46B1465E4604E00832103D102DAC
:103E200000DC8EE010310133146057602C912B932D
:103E3000072BF2DD414630002AAA02F047FE002897
:103E400001D0FFF70CF92C992B9B2DAAE6E7089BD4
:103E5000F41853460793189B9A4655E75B6EDB07A9
:103E600007D44B469B899B0503D44B46986D01F0C4
:103E700069FD01235B420993FFF77AF800230E9353
:103E80008EE7149B079928934B46013B1A78C97B10
:103E90008A4207D130201870289B013B28931A785A
:103EA0009142F8D0392A00D1E9E00132D2B21A7039
:103EB000B3E5089B2A005C1C28AB049325AB039355
:103EC00024AB029302235846009301944B4600F022
:103ED0007FFA060013E75846591C01F0A7FD061E9D
:103EE00000D10BE10E90FEE4302223AB1A70483271
:103EF000EEE443461493159BD0469A464B461397DF
:103F0000B146219F1E0060E5089B002B01D10123D3
:103F10000893802352465B001A4318921699179A09
:103F2000002AABDB00230D00914619930E93FFF797
:103F300059FA2023129A9A431A3B0B920893FFF7DF
:103F400038FAB3464E46A1460C004946641901337F
:103F5000116055602C942B93072B01DCFFF7BEF901
:103F6000414658462AAA02F0B1FD002801D0FEF7CA
:103F7000ECFF2C9C2B9B2DAAFFF701FC1CA92A23EC
:103F80008C466344002A06D10A002A2130235218A5
:103F90001370053B634420003030187026AA0133AB
:103FA0009B1A1E93FFF7ABFA129B01220F33DBB271
:103FB000FFF751FA280024AA494602F04BFCFF23E0
:103FC00000229B05FDF71AFA0022002304000D00D1
:103FD000FCF7BCF9002801D0012324934D4B079333
:103FE000B1E4C146FEF7B8FF179B002B67DB1CABA3
:103FF000DB7E129A472A5FDD474EFEF740FC6723BF
:1040000012931A990B78FF2B6BD0002218921392FF
:10401000149A05E01398013101301390FF2B0AD058
:10402000934208DAD21A4B78002BF3D1189B013354
:1040300018930B78F2E71A911492189A139B9446EE
:104040001F9A634453430B9A94469C446246D3435D
:10405000DB170B921A400792FFF771FA1B9B9C46E5
:1040600062448C46944463460B936623129381E624
:10407000079BDB0701D4FFF751FAFFF74AFA079ACB
:10408000927A1A70C9E4079A1340089A134306D12A
:104090000123079365331293653B0B9310E5944618
:1040A0001B9B581C84446246D343DB170B921A4077
:1040B00066230792129303E5184EFEF7E0FB2D23CB
:1040C0001CAAD37695E70F9A08CA0893002B02DA48
:1040D00001235B420893069B0F925B780690FEF7E4
:1040E00071FA002318931393A7E702231E93FFF797
:1040F00006FA0749894628E7089C00E643469A895C
:10410000402313434246C1469381FEF725FFC04634
:1041100038880000888600008486000080860000C1
:10412000F0B51F0002231F4C1500A5440C0089891F
:104130006A4699436B469981636E80211993E3899E
:104140000600D381E369C9000793636A16A809933F
:104150001AAB00930493002302910591069301F09A
:10416000EBFB2A003B0069463000FEF7B7F9051E5D
:104170000EDA6B469B895B0603D54022A389134365
:10418000A381169801F0DAFB2800074B9D44F0BD8F
:104190006946300001F09AF90028EAD001256D4205
:1041A000E7E7C04694FBFFFF6C040000354B70B599
:1041B000050018680C00002802D0836B002B21D06A
:1041C0000C23E25EA389190723D5216900292BD08E
:1041D000D80708D50020A06060694042A061002097
:1041E000002908D070BD00209D0700D46069A06040
:1041F00000200029F6D11B06F4D540231A43A281E2
:104200000138EFE701F0A0F90C23E25EA38919075A
:10421000DBD4D9062DD55B0716D4216908231A43B0
:10422000A28193B20029D3D1A02080268000B600BD
:104230001840B042CCD02100280001F085FB0C23AF
:10424000E25E2169A389C3E7216B00290AD023001C
:104250004033994204D0280001F064FA0C23E25E56
:104260000023236324239A43002321696360216090
:10427000D4E709232B60402301201A43A281404246
:10428000B0E7C04600000020F0B54546DE46574680
:104290004E46E0B503690D6985B080460A0001917C
:1042A000AB4200DA91E0142141448C46013D1432C6
:1042B000AB00D618634403931B6800919A46336899
:1042C00050465F1C39000292FBF7BAFE0400BA4563
:1042D0003CD30023002118008C46A946009F029A77
:1042E00008CA1904090C61431B0C634309180D0C1F
:1042F0005D193B6809041B041B0C6344090C591A23
:104300003B68280C2D042D0C1B0C5B1B0D145B193A
:1043100009041D14090C1B040B43AC4608C7964244
:10432000DED2039B4D461A680392002A0ED1009AF2
:10433000043B934208D9009A03E0043B013D9342B9
:1043400002D919680029F8D043461D6140460199F9
:1043500002F034F9002830DB002301341F00A446AA
:10436000009902980B6810C81A04120CD71922047D
:10437000120CBA1A1B0C270CDB1B1714DB191204C6
:104380001F14120C1B04134308C18642EAD2009A80
:1043900064469446AB006344196800290DD1043B80
:1043A000934208D9009A03E0043B013D934202D9AD
:1043B00019680029F8D043461D61200005B0F0BC03
:1043C000BB46B246A946A046F0BD0020F6E7C0466F
:1043D000F0B557464E464546DE461400E0B51D0092
:1043E000016C9BB0824604940595279E002909D054
:1043F0000123426C93404A608B6001F04BFE002326
:10440000524613642F1E00DA6BE100233A0033603A
:10441000CE4B1A409A4200D16EE1049A059B1000DF
:104420001900002200230A900B91FBF78FFF002850
:1044300012D00123269A1360289B002B00D1B5E2ED
:10444000C3481860431E039303981BB0F0BCBB46DF
:10445000B246A946A046F0BD18AB019319AB009334
:1044600050460A9A0B9B02F089F93E0D834600D014
:1044700054E1189B199E9846B64B4644F318202BDE
:1044800000DC96E340223800D31A9840B24BF21871
:10449000D4402043FDF734FE0123B04C013E0919FE
:1044A0000F930022AE4BFDF715FAAE4AAE4BFCF768
:1044B000A5FFAE4AAE4BFCF763F8040030000D00D8
:1044C000FDF7EEFDAB4AAC4BFCF798FF02000B008A
:1044D00020002900FCF754F804000D00FDF7AAFDA8
:1044E000002207000690002320002900FBF734FF7C
:1044F00000280AD03800FDF7D3FD2B002200FBF77F
:1045000025FF434258413B1A0693069C162C00D9BE
:1045100028E20A980B99994BE2009B181A685B688D
:10452000FBF71AFF002800D1F7E100230E93434662
:104530009E1B00230C933300013C0694013B08931F
:1045400000D51AE2069B002B00DBF0E1069B0C9ADB
:104550000993D21A0C925A4200230693249B914647
:104560000124092B00D9EFE1052B02DD0024043BD7
:104570002493249B042B01D100F05BFC052B01D17B
:1045800000F0F2FB022B00D0FDE100230D93259BF0
:10459000002B01DC00F0F5FB1D00149307930023B2
:1045A00052465364172D01DC00F0D4FE012204337F
:1045B0005B001800143011000132A842F8D95346AC
:1045C0005964504601F03EFD0390002801D100F0EF
:1045D000AFFE5346039A1A64079B0E2B00D9E5E001
:1045E000002C00D1E2E00998002801DC00F00BFD6E
:1045F0000F210200614B0A40D2009B1806111C6873
:104600005D68C30501D500F006FC0A9A0B9B109269
:10461000119302239846002E11D0594F01233342A3
:1046200009D09C463A687B6820002900E044FCF7EA
:10463000E5FE04000D0076100837002EEED110982C
:10464000119922002B00FCF7D7FA06000F000E9BF1
:10465000002B09D00022300039004A4BFBF77CFECA
:10466000002801D000F0FDFB4046FDF719FD3200A7
:104670003B00FCF7C3FE0022434BFBF781FF434A9C
:104680000B0094466344129013911393099B159366
:10469000079B1093002B01D000F00AFC0022300091
:1046A00039003B4BFDF716F9129E139F32003B0079
:1046B00004000D00FBF764FE002801D000F0E0FDCF
:1046C000802000068446390061440B00320020003F
:1046D0002900FBF741FE002868D0002300279946F7
:1046E0008DE001236F007F083A003360174B059778
:1046F0001A409A4200D090E6269A264B13603A035D
:10470000120B14431AD1289B002B01D100F01EFE7E
:10471000214B03930833289A136095E60A9B0B9C60
:10472000184A180023031B0B1A431C4B11009C460C
:10473000189B6644984600230F93B2E6289B002BF3
:1047400000D00DE3164B03937EE6C0460000F07FD9
:10475000B98600003204000012040000000010FEC0
:104760000000F83F61436F63A787D23FB3C8608BF7
:10477000288AC63FFB799F501344D33F9889000095
:10478000708900000000F03F00001C400000C0FCE9
:10479000000014400F2700004C88000001FCFFFFC0
:1047A00048880000179B9946169B9B46199B002B37
:1047B00000DA8BE0099A0E2A00DD87E0DC4BD2009C
:1047C0009B181E685F68259B002B1CDA079B002B3B
:1047D00019DC079B002B00D07FE700223900D54B66
:1047E0003000FCF70BFE0B0002000A980B99FBF758
:1047F000BDFD002300279946002800D1DCE2259B5F
:10480000039DDC43E0E232000A9C0B9D3B0020004C
:104810002900FCF7F1F9FDF70DFC8146FDF740FC9E
:1048200032003B00FCF7EAFD02000B0020002900EB
:10483000FDF750F8039A531C98464B4630331370DB
:10484000079B012B01D100F04CFC013A012304929B
:104850005246C2460692984624E001239C46320006
:104860003B0020002900E044FCF7C6F9FDF7E2FB1D
:104870008146FDF715FC32003B00FCF7BFFD02004E
:104880000B0020002900FDF725F801239C464B462C
:104890004446049A30331355079BE244984501D1AE
:1048A00000F01CFC0022A44BFCF7A8FD0022002312
:1048B00004000D00FBF74AFD0028CED0069BD04631
:1048C0009A46099B44460133099356E10D9A002A02
:1048D0006FD0249A012A00DCAFE2079B5D1E4B4695
:1048E000A94500DB95E2069AEB1A94469C44634680
:1048F000A946002506930C99079BCC1A002B06DBD2
:104900009C4608980C006044614408900C91012179
:10491000504601F067FC07004EE043469E1B330003
:10492000013B089300D56BE300230E930C93069A8A
:10493000089B94466344089300239946249B0124D2
:104940000992092B00D80FE6012200230D92023AAA
:10495000249307922593002352465364079B00211A
:1049600014932EE601230E9343469E1B00230C93C3
:104970003300013B089300D4E4E501239B1B0C9317
:1049800000230893DEE500230D93249B032B01D025
:1049900000F0B8FC099A259B9446634414930133B4
:1049A0001D1E079300DDFAE50125F8E5634B03932F
:1049B0004AE54D4600270C9C002C0DDD089A002A84
:1049C0000ADD2300944200DD0AE20C9AE41AD21AAE
:1049D0000C92089AD31A08934B46002B1BD00D9BC0
:1049E000002B00D1B5E1002D10DD39002A00504622
:1049F00001F0FAFC5A4601000700504601F022FC83
:104A000006005946504601F045FBB3464B465A1B3B
:104A1000A94500D09EE10121504601F0E3FB069A32
:104A20008146002A00DDC9E0249B0025012B00DC23
:104A30009DE1069B0120002B00D0C9E01F230899AF
:104A40001A008C4660440240034200D1A4E00133C6
:104A50009B1A042B01DC00F072FC1C239B1A0C9A9D
:104A6000E41894469C4462468C469C4463460C92EF
:104A700008930C9B002B05DD59461A00504601F0A7
:104A80001FFD8346089B002B05DD49461A00504652
:104A900001F016FD81460E9B002B00D040E1079BE4
:104AA000002B00DC26E10D9B002B00D0A8E0099B29
:104AB00001330993039B079A5D1E4B46A846B946EE
:104AC000554601245E4692461F0007E03100002350
:104AD0000A22280001F0E8FA06000134390030000B
:104AE000FFF7D2FB4346303018555445EEDB3B0010
:104AF0004F469946079BB346AA4601240690002BD1
:104B000000DD1C00039B00269C466444594601229C
:104B1000504601F0D5FC4946834601F04FFD002880
:104B200000DC60E2651E2A782B0003990FE0C04686
:104B3000988900000000144000002440B88600005E
:104B4000013B8D4200D147E21A782C00013D392A01
:104B5000F6D001322A704946504601F09BFA002FE8
:104B60000BD0002E05D0BE4203D03100504601F0DC
:104B700091FA3900504601F08DFA5946504601F03D
:104B800089FA0023099A2370269B1A60289B002B20
:104B900000D159E41C6057E41C230C9AE418944695
:104BA0009C4462460C92089A94469C44634608933F
:104BB0005FE720222000D31A98406BE401005046A2
:104BC00001F012FC249B8146012B00DC0AE1002548
:104BD0004B461B6903339B004B44586801F0B8FAFD
:104BE0002023181A2AE7002339000A22504601F030
:104BF0005BFA149B0700002B00DC77E30996079310
:104C0000002C05DD39002200504601F059FC070058
:104C1000B846002D00D082E2079A039B94461D00FF
:104C2000013B9C446346089301232E005D46CB461E
:104C3000049A1A40079259462800FFF725FB030003
:104C4000390030330C902800069301F0B7FC594628
:104C500004004246504601F0CBFCC3688146010087
:104C6000002B3BD1280001F0A9FC49460490504696
:104C700001F010FA249A049B1343079A134300D1BE
:104C800002E3002C00DAF2E1249B1C43079B1C4347
:104C900000D1ECE1049B002B00DDC9E2069A741CF4
:104CA0003270089A964200D1CCE2290000230A22F1
:104CB000504601F0F9F9002305000A223900504658
:104CC000474511D001F0F0F94146070000230A22C0
:104CD000504601F0E9F926008046ACE7504601F065
:104CE000D9F901230493CCE701F0DEF9260007008F
:104CF0008046A0E7249B022B4DDC0D9B002B00D0AF
:104D00007EE749465846FFF7BFFA0300039A30335F
:104D100006931370099B00260133541C0993F5E692
:104D20004946584601F04AFC002800DBB7E6099BDB
:104D300059460A2250465E1E002301F0B5F90D9B2C
:104D40008346002B00D04EE7149B002B1DDD0793FC
:104D5000B0E64A465946504601F046FB83465AE6BD
:104D6000D44B03930333D6E401230D9312E6049945
:104D7000059A002900D05CE61300120300D058E623
:104D80003AE0012307932593E5E5149B09960793E1
:104D9000249B022BB5DD079B002B00D02FE5494655
:104DA0000522504601F080F981460100584601F085
:104DB00005FC002800DC22E5039A31231500099C3C
:104DC0001370531C013403934946504601F062F9B5
:104DD000631C0993039C0395002F00D0C9E6CCE621
:104DE0001300F2E5049B002B00D0F0E60499059A2D
:104DF0001300120300D0EAE6AF4A0025134200D1A7
:104E000017E60C9B013501330C93089B0133089383
:104E10000FE65D1B6FE5A94B0E401A6A5B6A0A98A4
:104E20000B99FBF7E9FE0323109011919846FFF7C9
:104E3000F2FB01230D93FFF7AAFB0F9A002A00D182
:104E4000F2E19F4A94466344089A4D4694469C4436
:104E5000624608920C9A94469C44634614000C9354
:104E600055E5079B002B00D118E2149C002C00DCB8
:104E70009CE4099B0022013B300039001593914BC3
:104E8000FCF7BCFA060040460F000130FDF708F9B8
:104E900032003B00FCF7B2FA00228B4BFBF770FBB1
:104EA0008A4A0B0094466344129013911094139312
:104EB0000D9B002B00D148E1109B00205A1E844B13
:104EC000D2009B181A685B688249FBF795FE129A1C
:104ED000139BFCF7FFFC1290139130003900FDF793
:104EE000A9F81690FDF7DCF802000B00300039003D
:104EF000FCF7F0FC039B169E5A1C303604000D0094
:104F000090461E7002000B0012981399FBF738FAB6
:104F1000002800D0DDE14B46002717935B46BB46D7
:104F2000129E139F169333E001239C46109BE3448B
:104F30009B4500DB36E4002230003900614BFCF772
:104F40005DFA00225F4B06000F0020002900FCF7ED
:104F500055FA0D000400FDF76DF88146FDF7A0F845
:104F600002000B0020002900FCF7B4FC0123040020
:104F700048465A469C46039B3030985432003B00CA
:104F800020000D00E044FBF7E7F9002800D09EE187
:104F900022002B0000205049FCF79CFC32003B0013
:104FA000FBF7DAF90028BFD0169B42469B46159BBB
:104FB0000399099302E08A4200D151E11400013AB9
:104FC0001378392BF7D090460133DBB24246137089
:104FD000099B01330993D0E53123039A1370099B90
:104FE00001330993B7E5002803D1069BDB0700D501
:104FF00098E523001C00013B1A78302AFAD0AAE574
:1050000000230E93B9E4099B002B00D122E10A98FA
:105010000B995C420F232E4A2340DB00D3181A68F9
:105020005B68FCF7EBF9241106000F00002C00D19F
:1050300064E1022210961197002317001F4D0122F0
:10504000224205D02A686B68FCF7D8F901230137A2
:1050500064100835002CF2D1B846109E119F002B29
:1050600001D1FFF7F4FA06000F00FFF7F0FA049BF6
:10507000D946AB463500002B12DD59460122504679
:1050800001F01EFA4946834601F098FA002800DC38
:1050900024E1069B392B00D1E8E00C9B31330693C9
:1050A000069B6C1C2B70099B3E00013347460993FD
:1050B00051E5C046488800000000F07F708900007C
:1050C000330400000000244000001C400000C0FC2D
:1050D000988900000000E03F0000F03F069BD046AA
:1050E0009A4602000B00FBF74BFA32003B0004002B
:1050F0000D00FBF745F900280ED132003B002000DF
:105100002900FBF723F9002801D1FFF7DAFB4B4612
:10511000DB0701D4FFF7D5FB424603994EE7504623
:10512000796800F08FFF041E00D116E139003B6959
:105130000C319A1C92000C30FDF718F90122210065
:10514000504601F0BDF9804666E5109B8649013B5B
:10515000DB00C91808684968129A139BFCF74EF9DE
:105160001290139130003900FCF764FF1690FCF7A1
:1051700097FF02000B0030003900FCF7ABFB039AED
:105180000D00511C88461100169E109B303616707B
:105190008C461A006244040046461092012B1DD032
:1051A000109B98460022714B20002900FCF726F93D
:1051B0000D000400FCF73EFF0700FCF771FF020042
:1051C0000B0020002900FCF785FB303737700136D3
:1051D00004000D00B045E5D1109B9846129E139F28
:1051E0000022634B30003900FBF7CAF922002B0084
:1051F000FBF7B2F8002865D132003B0000205C4983
:10520000FCF768FB22002B00FBF7BAF8002801D15D
:10521000FFF7CCFA43461C00013B1A78302AFAD03B
:10522000159B01330993A8E43623189A9B1A0BE6C1
:10523000069BD946AB463500392B17D0069B741C0C
:1052400001332FE7099BD94601333E00AB46474661
:1052500009935BE402230A9E0B9F9846FFF7F7F938
:10526000099B9046013309933123AFE639232B7014
:10527000099B3E000133474639226C1C099353E4D5
:1052800000230027994697E5069BD946AB46350093
:10529000392BEBD0002C00DDFFE601E74046FCF7A0
:1052A000FFFE32003B00FCF7A9F80022314BFBF770
:1052B00067F9314A0B00944663441290139113939B
:1052C000FFF7ECF9159B42460399099376E6169B86
:1052D0009B46159B4446013309934EE4002800D0B9
:1052E000DEE6069BDB0700D5D3E6D9E6149B0996DC
:1052F0000793249B022B00DD4DE581E402239846B1
:10530000FFF7A5F953460D9A002150465A6400F064
:1053100099FE039000280BD05346039A1A64002389
:1053200001222593013B14930D920793FFF73EFA58
:10533000D5210022114B1248490002F007FB042B33
:1053400001D1FFF796FB3C239B1A26E40D4B0393F8
:10535000FFF77AF80021FFF734F90022074B0A49DA
:10536000074802F0F3FAC046988900000000244084
:105370000000E03F00001C400000C0FC5888000016
:105380006C8800004C880000EA020000F0B5C646B8
:105390000C0000B5A28980460C23C95E13074CD4CB
:1053A000802362681B010B43A381002A66DDA66A85
:1053B000002E3ED042464146156800220A609AB24D
:1053C000DB0460D4012300224046E169B047431C5E
:1053D00068D0A289A66A530706D56368C01A236BF2
:1053E000002B01D0E36BC01A00230200E1694046A4
:1053F000B047431C49D143461B68002B45D01D2BA9
:1054000001D0162B57D1A3892F4A1340A381002323
:105410006360236923604346216B1D60002908D027
:1054200023004033994202D0404600F07BF900232C
:105430002363002080BCB846F0BD2669002EF8D05A
:10544000236826609D1B0023920700D16369A36037
:10545000002D04DCEDE736182D1A002DE9DD2B00B8
:1054600032004046E169676AB8470028F3DC402211
:105470000120A38940421343A381DBE7E26B002AAA
:1054800000DD94E7D5E7206DA5E7A3890E4A134018
:105490000022626022691BB2A3812260DB04BAD5BC
:1054A0002065B8E743461B68002B00D191E71D2B10
:1054B00006D0162B04D04022A3891343A381B9E759
:1054C000434600201D60B5E7FFF7FFFF70B50500FC
:1054D0000C00002802D0836B002B15D00C22A35E99
:1054E000002B17D0626ED20701D49B0514D528007B
:1054F0002100FFF74BFF636E0500DB0702D4A38991
:105500009B0515D5280070BD00F01EF80C22A35E87
:10551000002BE7D10025F5E7A06D00F011FA280077
:105520002100FFF733FF636E0500DB07EAD4E6E7EF
:10553000A06D00F007FAE5E710B5024900F0D4F9D4
:1055400010BDC046597A0000F8B5DE4657464E46B3
:105550004546E0B506003C4F380000F0F1F9B46B69
:10556000002C68D1394B0322F363B8239B00F4501D
:1055700004337568F2500833F218043BF2502800E7
:10558000042308220021EB606C662C606C60AC6028
:105590002C616C61AC615C30FCF73AFF28002C4B4D
:1055A000ED619B462B622B4B58309A466B622A4B1F
:1055B0009946AB62294BEB62984600F0BDF9B5689D
:1055C000274B280008220021EB606C662C606C6081
:1055D000AC602C616C61AC615C30FCF719FF5B4620
:1055E0002B6253466B624B462800AB624346ED612B
:1055F000EB62583000F0A0F9F5681A4B2800082239
:105600000021EB606C662C606C60AC602C616C619E
:10561000AC615C30FCF7FCFE5B462B6253466B6270
:105620004B462800AB624346ED61EB62583000F018
:1056300083F90123B363380000F084F9F0BCBB4662
:10564000B246A946A046F8BDBC110020395500005D
:10565000DD6800000569000045690000716900000F
:10566000090001001200020010B5024800F068F9BC
:1056700010BDC046B811002010B5024800F062F914
:1056800010BDC046B8110020F8B50C00050000F0B0
:10569000C9FC204FBB685E6803239E431E4B341B2E
:1056A0009C466444240B013C113324039C4207DBD9
:1056B0000021280001F000F9BB689B19984204D032
:1056C000280000F0B7FC0020F8BD2800614201F07E
:1056D000F3F8431C0DD00122BB68361B16435E60F5
:1056E0000E4B28001A68141B1C6000F0A3FC01205C
:1056F000EAE70021280001F0DFF8BA68831A0F2BCF
:10570000DEDD07490968401A0449086001210B439E
:105710005360D5E730040020EF0F0000C0110020D7
:1057200038080020F0B5C64605000C0000B5002979
:105730004FD000F077FC210008394C680126220088
:105740000320B2438F187B6883436248984683687E
:10575000BB426AD043467B6026421ED108239C464A
:105760000C688444091B12198C6864454FD0CB68BF
:10577000E3609C604346FC186468344211D1BB6806
:10578000554C4244A34200D17EE0FC68DC60A3603B
:10579000012313434B608A5006E0FC1864683442CE
:1057A000EDD016434E603A6080239B009A4213D29C
:1057B0005409D3080122A2404468DB00224342601E
:1057C00018188368C8608B608160D960280000F079
:1057D00031FC80BCB846F0BD530A042B3ED8940976
:1057E000260039343836E40004192368083C0327BE
:1057F0009C4242D05868B843904202D99B689C4270
:10580000F8D1DC68CC608B60A160D960DEE74346EC
:10581000F8184068304257D1FB68B86842441643D4
:10582000C36098604E608A50D0E71300434426421C
:1058300006D10A68891A8C689B18CA68E26094606D
:1058400001221A434A60254A816012689A42BDD8F3
:10585000234B28001968FFF717FFB7E7142B07D968
:10586000542B1AD8140B26006F346E36E400BBE7B5
:105870001E005C335B36DC00B6E70122B610B24096
:10588000466832434260BDE7D9609960CB608B6067
:10589000012313434B608A5098E7AA246400A34273
:1058A00005D8D40B260078347736E4009CE70D4CFD
:1058B000A34205D8940C26007D347C36E40093E79F
:1058C000FE247E26A4008FE7330013434B603A602A
:1058D0007CE7C04630040020380400203C0800204B
:1058E000F011002054050000F8B54746CE4680B5BB
:1058F000B827804689460026BF0047447B68BC68BD
:105900005D1E0DD4A389012B07D90E22A35E01339E
:1059100003D021004046C84706436834013DF1D218
:105920003F68002FEAD13000C0BCB946B046F8BD90
:1059300000487047300900207047C0467047C04695
:105940007047C0467047C046F0B5C64600B58B8963
:1059500005000C0096B09A0709D523004333236055
:1059600023610123636116B080BCB846F0BD0E22EE
:10597000895E002929DB6A4602F068F9002823DBEA
:10598000F023019F1B021F40264B80269C46674444
:105990007B425F418023DB00984636014146280068
:1059A00000F044F800281CD080221F4BEB63A38931
:1059B0002060134342461BB2A38120616261002F25
:1059C0001ED13343A381CEE7A38900271B0612D53E
:1059D0004023984628004146002600F027F800287A
:1059E000E2D10C22A35E9A05BDD403229343022286
:1059F0001343A381B1E78023DB0098460026CDE75F
:105A000028000E23E15E02F0AFFA002802D10C223A
:105A1000A35ED6E70322A3899343012213431BB25B
:105A2000CFE7C04600E0FFFF39550000F0B54E4615
:105A30004546DE465746E0B50D000B35060083B0FF
:105A4000162D22D8102900D9B2E000F0EBFA10256B
:105A500018230220CC4FFB181A005C68083A9442C5
:105A600000D1B5E0032362689A431300E268A1689D
:105A7000CA6091600122E318596830000A435A60F5
:105A800000F0D8FA2000083095E007239D4300D5A8
:105A90008EE0A94200D98BE000F0C4FAFC235B0041
:105AA0009D4200D2A7E1680A00D18BE0042800D90A
:105AB0007AE138239846A80980443930C100B24FB2
:105AC00079184C680839A1420ED003239C4604E0A3
:105AD000002ACBDAE468A14206D0624663689343A9
