:100000000040002099010000ED010000EF01000018
:1000100000000000000000000000000000000000E0
:10002000000000000000000000000000F1010000DE
:100030000000000000000000F3010000F5010000D6
:10004000F7010000F7010000F7010000F7010000D0
:10005000F701000000000000F7010000F7010000B8
:100060005D06000011070000C5070000F701000051
:10007000F7010000F7010000F7010000F7010000A0
:10008000F7010000F7010000F7010000F701000090
:10009000F7010000F7010000F7010000F701000080
:1000A000F7010000F7010000000000000000000060
:1000B0000000000000000000000000000000000040
:1000C00010B5064C2378002B07D1054B002B02D02E
:1000D000044800E000BF0123237010BD1C01002074
:1000E00000000000B4090000084B10B5002B03D03D
:1000F0000749084800E000BF07480368002B00D10B
:1001000010BD064B002BFBD09847F9E7000000001C
:1001100020010020B40900001801002000000000A8
:10012000164B002B00D1144B9D46402292029A1A86
:10013000924600218B460F461348144A121A00F0CB
:10014000D7FB0F4B002B00D098470E4B002B00D055
:1001500098470020002104000D000D48002802D01F
:100160000C4800E000BF00F09DFB2000290000F0DB
:1001700081F900F081FBC04600000800004000202B
:1001800000000000000000001C0100200002002010
:10019000000000000000000003210E4802680A432E
:1001A00002600D4802680A4302600C490C4A0D4B7C
:1001B0009B1A03DD043BC858D050FBDC09490A4AAE
:1001C0000020521A02DD043A8850FCDC00F028FAC4
:1001D000FFF7A6FF2405004054050040C0090000B9
:1001E000000000201C01002000020020FEE7FEE7C6
:1001F000FEE7FEE7FEE7FEE782B0F0B54F46464673
:10020000C0B489B00091019211AF119306AB6A4658
:1002100022CA22C3069A019B0360426001218846DC
:100220009940A326F6009151C133FF339B009958A2
:100230000C25A943995099588C461C498946644617
:100240000C409C5004AB3A0012CA12C3049A129B91
:100250008360C26047469F409751C133FF339B0084
:100260009F58AF439F509F5849460F409F5002AA46
:1002700013AB1C0082CC82C2029A149B03614261C0
:1002800044469C409451C133FF339B009C58AC437F
:100290009C509C5849462140995009B00CBC90464E
:1002A0009946F0BC08BC02B01847C046FFF8FFFFF3
:1002B00070B584B001286BD1364B994268D1364B6A
:1002C000364A1A60002159609A600131D9601A617A
:1002D000013159619A610131D9611A620131596262
:1002E0009A620131D9621A632D492E4A2E4B01AC14
:1002F000200060CB60C04B6800930B6811685268A7
:100300002A48FFF779FF2A492A4A2B4B200060CB65
:1003100060C04B6800930B68116852682748FFF76C
:100320006BFF2749274A284B200060CB60C04B68F1
:1003300000930B68116852682448FFF75DFF244959
:10034000244A254B200060CB60C04B6800930B68AB
:10035000116852682148FFF74FFF2149214A224B7B
:10036000200060CB60C04B6800930B681168526836
:100370001E48FFF741FF1E491E4A1F4B21CB21C4D7
:100380004B6800930B68116852681C48FFF734FFF4
:1003900004B070BDFFFF0000CC01002000800040D1
:1003A000A409000074090000940900003C01002029
:1003B0004C090000240900003C0900005401002001
:1003C0008C090000640900007C0900006C01002019
:1003D000540900002C090000440900008401002099
:1003E0009C0900006C09000084090000B401002091
:1003F0005C0900001C090000340900009C01002079
:1004000030B50C480B4B1833984212D008C8012263
:10041000140019688C40A121C9005D686C5014005B
:100420009D68AC40DD686C505C691B699A40625005
:10043000E8E730BD0000002030B50C480B4B183306
:10044000984211D008C80122140019688C4008494C
:100450005D686C5014009D68AC40DD686C505C6950
:100460001B699A406250E9E730BDC0460000002099
:100470000C05000010B586B01B230093A023DB05FC
:1004800001932B4900225A505C580C20844320438E
:1004900058505C582748204058500292264B0393EE
:1004A00004926B461A75AA2369464B758A75234BCD
:1004B0001B68002B03D1214B196005E013001A695A
:1004C000002AFBD16A461A61FFF79AFFFFF7B4FFD3
:1004D0006B465A7D1B7D9A4202D1FFF791FF01E0E6
:1004E000FFF7AAFF154B1C68002CF1D0637D5B0061
:1004F000DBB26375A222D2006168895801222068AC
:100500008240114202D0012213436375627D237D34
:100510009A4208D1A37D002B07D10133A375A068AF
:10052000E368984701E00023A3752469DCE7C0462F
:100530006C070000FFF8FFFF610500003801002094
:1005400010B502490120FFF7B3FE10BDFFFF000008
:1005500010B502490020FFF7ABFE10BDFFFF000001
:100560007047C046174B1B68FF221340012B1DD15B
:10057000154B1B681B071BD1144B1B680F3A13400C
:1005800004D1134A1268F021114213D0102B04D168
:100590000F4A1268F02111420ED0302B0ED10C4BB5
:1005A0001B68F0221A420BD000200AE0002008E06D
:1005B000002006E0012004E0012002E0002000E02D
:1005C00001207047E00F00F0E40F00F0E80F00F0AA
:1005D000EC0F00F00E4B1B68FF221340012B0FD1D4
:1005E0000C4B1B681B070DD10B4B1B680F3A1340BC
:1005F000402B09D1094B1B681A4207D0002006E0A6
:10060000002004E0002002E0002000E0012070470C
:10061000E00F00F0E40F00F0E80F00F0EC0F00F046
:1006200010B5FFF79FFF002806D0094A094B1A6052
:1006300080221202084B1A60FFF7CCFF002805D079
:100640000121C123DB008022D205D15010BDC0465C
:10065000DFFF07C004050040186C004010B5A02360
:100660005B00294AD358012B07D100214033FF33C7
:10067000D150264B5A6818689047A2235B00224A43
:10068000D358002B07D00021A2235B00D1501F4B71
:10069000DA6898689047A4235B001B4AD358002B64
:1006A00007D00021A4235B00D150184B5A69186968
:1006B0009047A6235B00144AD358002B07D0002193
:1006C000A6235B00D150114BDA6998699047A823A3
:1006D0005B000D4AD358002B07D00021A8235B00F4
:1006E000D1500A4B5A6A186A9047AA235B00064AFF
:1006F000D358002B07D00021AA235B00D150034B15
:10070000DA6A986A904710BD008000401800002007
:1007100010B5A0235B00294AD358012B07D1002133
:100720004033FF33D150264B5A6818689047A223B4
:100730005B00224AD358002B07D00021A2235B0084
:10074000D1501F4BDA6898689047A4235B001B4A7E
:10075000D358002B07D00021A4235B00D150184BA5
:100760005A6918699047A6235B00144AD358002B96
:1007700007D00021A6235B00D150114BDA6998699C
:100780009047A8235B000D4AD358002B07D00021C7
:10079000A8235B00D1500A4B5A6A186A9047AA23D3
:1007A0005B00064AD358002B07D00021AA235B0028
:1007B000D150034BDA6A986A904710BD0090004010
:1007C0004800002010B5A0235B00294AD358012B14
:1007D00007D100214033FF33D150264B5A681868A7
:1007E0009047A2235B00224AD358002B07D0002158
:1007F000A2235B00D1501F4BDA6898689047A4236E
:100800005B001B4AD358002B07D00021A4235B00B8
:10081000D150184B5A6918699047A6235B00144AB7
:10082000D358002B07D00021A6235B00D150114BD9
:10083000DA6998699047A8235B000D4AD358002BCA
:1008400007D00021A8235B00D1500A4B5A6A186ACE
:100850009047AA235B00064AD358002B07D00021FB
:10086000AA235B00D150034BDA6A986A904710BD07
:1008700000A0004078000020084B10B50400002BB9
:1008800002D0002100E000BF054B1868836A002BEE
:1008900000D09847200000F033F8C0460000000068
:1008A000B00900000E4B70B500251E000D4CE41A77
:1008B000A410A54204D0AB00F35898470135F8E7DF
:1008C00000F020F8084B00251E00084CE41AA41084
:1008D000A54204D0AB00F35898470135F8E770BD46
:1008E000080100200801002008010020100100205C
:1008F00003008218934202D019700133FAE770475F
:10090000FEE7C046F8B5C046F8BC08BC9E46704736
:10091000F8B5C046F8BC08BC9E46704700000050C1
:100920000B00000000000050080000000000005014
:1009300017000000000000500D00000000000050F3
:100940000A000000000000501500000000000050E8
:1009500009000000000000501600000000000050D8
:100960000C000000000000501E00000000000050BD
:1009700002000000000000501300000000000050C2
:1009800001000000000000500400000000000050C2
:1009900000000000000000501100000000000050A6
:1009A000030000000000005012000000430000009F
:0809B000A80000200000000077
:0809B80068F7FF7F0100000059
:1009C0003C0100209C01002054010020B4010020C3
:1009D0006C0100208401002000000000610500007F
:1009E000000000006105000000000000610500003B
:1009F000000000006105000000000000610500002B
:100A0000000000006105000000000000610500001A
:100A1000000000006105000000000000610500000A
:100A200000000000610500000000000061050000FA
:100A300000000000610500000000000061050000EA
:100A400000000000610500000000000061050000DA
:100A500000000000610500000000000061050000CA
:100A60000000000061050000000000000000000020
:100A70000000000000000000000000000000000076
:100A80000000000000000000AC09000000000000B1
:100A90000000000000000000000000000000000056
:100AA0000000000000000000000000000000000046
:100AB0000000000000000000000000000000000036
:100AC0000000000000000000E900000041050000F7
:0C0AD000C1000000510500000000000003
:04000003000001995F
:00000001FF
