:1000000000400020E5010000390200003B02000032
:1000100000000000000000000000000000000000E0
:100020000000000000000000000000003D02000091
:1000300000000000000000003F020000410200003C
:10004000430200004302000043020000430200009C
:1000500043020000000000004302000043020000D1
:1000600009070000BD0700007108000043020000FE
:10007000430200004302000043020000430200006C
:10008000430200004302000043020000430200005C
:10009000430200004302000043020000430200004C
:1000A00043020000430200000000000000000000C6
:1000B0000000000000000000000000000000000040
:1000C00010B5064C2378002B07D1054B002B02D02E
:1000D000044800E000BF0123237010BD1C01002074
:1000E00000000000680D0000084B10B5002B03D085
:1000F0000749084800E000BF07480368002B00D10B
:1001000010BD064B002BFBD09847F9E7000000001C
:1001100020010020680D00001801002000000000F0
:10012000164B002B00D1144B9D46402292029A1A86
:10013000924600218B460F461348144A121A00F0CB
:10014000ACFD0F4B002B00D098470E4B002B00D07E
:1001500098470020002104000D000D48002802D01F
:100160000C4800E000BF00F069FD2000290000F00D
:100170008FF900F04DFDC04600000800004000204F
:1001800000000000000000001C010020CC01002045
:100190000000000000000000D0B582B006000F0093
:1001A00010001900FA229200002300F0BBFB01901E
:1001B000019C0B4A00233000390000F0D7FB2018C7
:1001C0000190019B5A1E0192002B07D01623009329
:1001D000009B5A1E0092002BFAD1F2E702B0D0BD6C
:1001E00040420F0003210E4802680A4302600D4896
:1001F00002680A4302600C490C4A0D4B9B1A03DD4E
:10020000043BC858D050FBDC09490A4A0020521A66
:1002100002DD043A8850FCDC00F058FAFFF780FF5A
:100220002405004054050040740D0000000000202B
:100230001C010020CC010020FEE7FEE7FEE7FEE700
:10024000FEE7FEE782B0F0B54F464646C0B489B03F
:100250000091019211AF119306AB6A4622CA22C3E4
:10026000069A019B03604260012188469940A326BB
:10027000F6009151C133FF339B0099580C25A943D7
:10028000995099588C461C49894664460C409C50AC
:1002900004AB3A0012CA12C3049A129B8360C26074
:1002A00047469F409751C133FF339B009F58AF4350
:1002B0009F509F5849460F409F5002AA13AB1C0005
:1002C00082CC82C2029A149B0361426144469C40E4
:1002D0009451C133FF339B009C58AC439C509C58B5
:1002E00049462140995009B00CBC90469946F0BC53
:1002F00008BC02B01847C046FFF8FFFF70B584B0D5
:10030000012856D12C4B994253D12C492C4A2D4BC4
:1003100001AC200060CB60C04B6800930B68116893
:1003200052682948FFF78EFF2849294A294B2000A7
:1003300060CB60C04B6800930B6811685268264818
:10034000FFF780FF2549264A264B200060CB60C07E
:100350004B6800930B68116852682348FFF772FFDF
:100360002249234A234B200060CB60C04B68009396
:100370000B68116852682048FFF764FF1F49204A44
:10038000204B200060CB60C04B6800930B68116865
:1003900052681D48FFF756FF1C491D4A1D4B21CBD3
:1003A00021C44B6800930B68116852681A48FFF724
:1003B00049FF04B070BDC046FFFF0000580D0000AB
:1003C000200D0000380D00003C010020000D000051
:1003D000D00C0000E80C000054010020480D000083
:1003E000100D0000280D00006C010020080D000019
:1003F000D80C0000F00C000084010020500D00001B
:10040000180D0000300D00009C010020F80C0000C9
:10041000C80C0000E00C0000B401002030B50C480E
:100420000B4B1833984212D008C8012214001968E7
:100430008C40A121C9005D686C5014009D68AC40DF
:10044000DD686C505C691B699A406250E8E730BD1A
:100450000000002030B50C480B4B1833984211D0E7
:1004600008C80122140019688C4008495D686C5066
:1004700014009D68AC40DD686C505C691B699A4053
:100480006250E9E730BDC046000000200C050000C6
:1004900070B58CB06946504B6A4611CB11C2082228
:1004A00002A800F0F1FB082202A904A800F0ECFB6E
:1004B0000499059B06AA06930791C133FF339B005D
:1004C000002058505D580C24A5432C435C505D58C7
:1004D000424C2C405C500890414B09930A90107597
:1004E000AA23537590753F4B1B68002B03D13D4BDE
:1004F0001A6005E013001A69002AFBD106AA1A61E6
:10050000FFF78CFFFFF7A6FFC823002B1DD0FA22B0
:1005100092000023C820002100F004FA04000D001E
:10052000FA229200002300F021FAC8220023121AB6
:100530008B41100019002C4A002300F017FA02002A
:100540000B0020002900FFF727FE012506AA507D99
:10055000117D431A5E425E41F3B2D27D002A03D080
:10056000884203D1002102E0002100E0012106AA17
:10057000D375002904D0002D01D0002500E001250D
:10058000002D02D0FFF74AFF01E0FFF763FF154B94
:100590001C68002CDAD0637D5B00DBB26375A2229D
:1005A000D20061688958012220688240114202D03D
:1005B000012213436375627D237D9A4208D1A37D96
:1005C000002B07D10133A375A068E368984701E0C9
:1005D0000023A3752469DCE7400D0000FFF8FFFF4E
:1005E0000D0600003801002040420F0010B50249FE
:1005F0000120FFF783FE10BDFFFF000010B5024988
:100600000020FFF77BFE10BDFFFF00007047C046D3
:10061000174B1B68FF221340012B1DD1154B1B6884
:100620001B071BD1144B1B680F3A134004D1134A0C
:100630001268F021114213D0102B04D10F4A126816
:10064000F02111420ED0302B0ED10C4B1B68F02242
:100650001A420BD000200AE0002008E0002006E04B
:10066000012004E0012002E0002000E001207047AA
:10067000E00F00F0E40F00F0E80F00F0EC0F00F0E6
:100680000E4B1B68FF221340012B0FD10C4B1B6834
:100690001B070DD10B4B1B680F3A1340402B09D1A0
:1006A000094B1B681A4207D0002006E0002004E036
:1006B000002002E0002000E001207047E00F00F081
:1006C000E40F00F0E80F00F0EC0F00F010B5FFF7BA
:1006D0009FFF002806D0094A094B1A6080221202A7
:1006E000084B1A60FFF7CCFF002805D00121C12379
:1006F000DB008022D205D15010BDC046DFFF07C00D
:1007000004050040186C004010B5A0235B00294A86
:10071000D358012B07D100214033FF33D150264B52
:100720005A6818689047A2235B00224AD358002BCE
:1007300007D00021A2235B00D1501F4BDA689868D4
:100740009047A4235B001B4AD358002B07D00021FD
:10075000A4235B00D150184B5A6918699047A6230F
:100760005B00144AD358002B07D00021A6235B005E
:10077000D150114BDA6998699047A8235B000D4A64
:10078000D358002B07D00021A8235B00D1500A4B7F
:100790005A6A186A9047AA235B00064AD358002B6E
:1007A00007D00021AA235B00D150034BDA6A986A74
:1007B000904710BD008000401800002010B5A02315
:1007C0005B00294AD358012B07D100214033FF3366
:1007D000D150264B5A6818689047A2235B00224AE2
:1007E000D358002B07D00021A2235B00D1501F4B10
:1007F000DA6898689047A4235B001B4AD358002B03
:1008000007D00021A4235B00D150184B5A69186906
:100810009047A6235B00144AD358002B07D0002131
:10082000A6235B00D150114BDA6998699047A82341
:100830005B000D4AD358002B07D00021A8235B0092
:10084000D1500A4B5A6A186A9047AA235B00064A9D
:10085000D358002B07D00021AA235B00D150034BB3
:10086000DA6A986A904710BD009000404800002066
:1008700010B5A0235B00294AD358012B07D10021D2
:100880004033FF33D150264B5A6818689047A22353
:100890005B00224AD358002B07D00021A2235B0023
:1008A000D1501F4BDA6898689047A4235B001B4A1D
:1008B000D358002B07D00021A4235B00D150184B44
:1008C0005A6918699047A6235B00144AD358002B35
:1008D00007D00021A6235B00D150114BDA6998693B
:1008E0009047A8235B000D4AD358002B07D0002166
:1008F000A8235B00D1500A4B5A6A186A9047AA2372
:100900005B00064AD358002B07D00021AA235B00C6
:10091000D150034BDA6A986A904710BD00A000409E
:1009200078000020002B15D1002A13D1002906DB06
:1009300001DC002806D00020C043410802E08021ED
:100940000906002007B4024801A14018029003BD27
:10095000AD00000003B4684601B5029800F032F81B
:10096000019B9E4602B00CBC7047C046F0B54F4696
:100970004646C0B41604360C9946330005042C0CC8
:10098000070C150C63437E436F4365431C0CAD1984
:1009900064199C46A64203D980235B0298464744CB
:1009A0006346250CEF191D044B464A4343432D0C67
:1009B000240464199918C91920000CBC9046994662
:1009C000F0BDC046F0B583B016001F000090019145
:1009D00000F022F804000D0002000B003000390086
:1009E000FFF7C4FF009A019B121A8B41089920005F
:1009F0000A604B60290003B0F0BDC0467047C04696
:100A000010B5002903D100F0E5F8203002E0081C01
:100A100000F0E0F810BDC046F0B544465F465646CB
:100A20004D46F0B41C0083B0002900DA92E00F00BC
:100A3000002106008A4610001900002C00DA80E030
:100A400034003D0081468846B94269D866D04146A7
:100A50004846FFF7D5FF834639003000FFF7D0FF47
:100A60005B461B1A9C46203B9B4600D586E04946C8
:100A7000584681400B004946604681400A00BB420F
:100A800000D971E06DD034003D005946A41A9D4153
:100A9000002900DA89E00021002001260090019160
:100AA00059468E400196614601268E406146009669
:100AB000002960D0D90756080E435F08614601221D
:100AC00000230CE0AF4201D1A6420AD8A41BBD41CD
:100AD00024196D410139A4185D41002906D0AF42A7
:100AE000F0D9013924196D410029F8D15B460098ED
:100AF000019900196941002B4CDB2E00DE40634652
:100B00002C00DC405B46002B5ADB34009C40230069
:100B10006446A6403200801A994103E0B04296D95B
:100B2000002000215346002B04D003000C000021BC
:100B30005842A14103B03CBC90469946A246AB4600
:100B4000F0BD5346DB430C009A4613000021584287
:100B5000A14175E7002746428F41012149428A465B
:100B600069E7B14200D88EE7002100200090019192
:100B7000614600299ED100980199D3E7624640461C
:100B80002023494690409B1AD940030000910099C8
:100B90000B4370E7624620239B1A2A009A402600E6
:100BA00013006246D6401E43A9E76146202601276E
:100BB000761A00200021F74000900191019772E71A
:100BC00062462023350094409B1ADD4023002B43CE
:100BD0009EE7C0461C2101231B04984201D3000C50
:100BE00010391B0A984201D3000A08391B099842A0
:100BF00001D30009043902A2105C40187047C046B6
:100C000004030202010101010000000000000000D5
:100C1000084B10B50400002B02D0002100E000BFFB
:100C2000054B1868836A002B00D09847200000F01D
:100C30003DF8C04600000000640D00000E4B70B58A
:100C400000251E000D4CE41AA410A54204D0AB00F0
:100C5000F35898470135F8E700F02AF8084B0025CB
:100C60001E00084CE41AA410A54204D0AB00F358AF
:100C700098470135F8E770BD080100200801002001
:100C80000801002010010020002310B59A4203D073
:100C9000CC5CC4540133F9E710BD030082189342C1
:100CA00002D019700133FAE770470000FEE7C04632
:100CB000F8B5C046F8BC08BC9E467047F8B5C046BB
:100CC000F8BC08BC9E467047000000500B000000B6
:100CD0000000005008000000000000501700000055
:100CE000000000500D000000000000500A0000004D
:100CF0000000005015000000000000500C00000033
:100D00000000005009000000000000501600000024
:100D1000000000501E000000000000500200000013
:100D2000000000501300000000000050010000000F
:100D300000000050040000000000005011000000FE
:100D4000000000501B0000000000005000000000E8
:100D500000000050030000000000005012000000DE
:0C0D600043000000A8000020000000007C
:080D6C00B4F3FF7F0100000059
:100D74003C010020B4010020540100209C0100200B
:100D84006C01002084010020000000000D0600001A
:100D9400000000000D060000000000000D06000029
:100DA400000000000D060000000000000D06000019
:100DB400000000000D060000000000000D06000009
:100DC400000000000D060000000000000D060000F9
:100DD400000000000D060000000000000D060000E9
:100DE400000000000D060000000000000D060000D9
:100DF400000000000D060000000000000D060000C9
:100E0400000000000D060000000000000D060000B8
:100E1400000000000D0600000000000000000000BB
:100E240000000000000000000000000000000000BE
:100E34000000000000000000600D00000000000041
:100E4400000000000000000000000000000000009E
:100E5400000000000000000000000000000000008E
:100E6400000000000000000000000000000000007E
:100E74000000000000000000E9000000ED05000093
:0C0E8400C1000000FD050000000000009F
:04000003000001E513
:00000001FF
